:020000040000fa
:100000000200d2021003000000000002100b0000ea
:10001000000000021013000000000002101b00008e
:10002000000000021023000000000002102b00005e
:10003000000000021033000000000002103b00002e
:10004000000000021043000000000002104b0000fe
:10005000000000021053000000000002105b0000ce
:10006000000000021063000000000002106b00009e
:10007000000000021073000000000002107b00006e
:10008000000000021083000000000002108b00003e
:10009000000000020dcbe490000378c579018002d6
:1000a000f0a3d8fcd9fa7ac77b009000e4780979ec
:1000b000018015e493a3ad82ae838a828b83f0a383
:1000c000aa82ab838d828e83d8e9d9e71203b1125d
:1000d0000dea75d00075813f751c8075931e539293
:1000e000fe0200960010000000000200bb0102e7c3
:1000f00022c0925392fec082c08389828a83bb0051
:1001000003e08002e493d083d082d09222bb00151a
:10011000c0925392fec082c0838a838982f0d083ca
:10012000d082d09222bb0101f722cac0e0e6f309d7
:1001300008dafad0e0fa22cac0e0e0f208a3dafa5c
:10014000d0e0fa22600c08c6c313c618c613c6d581
:10015000e0f422700422600d18c6c333c608c6330b
:10016000c6d5e0f41822e4735392fed083d08225e2
:100170001cf8c51cc39824fbcef208e520f208e960
:10018000c0e07908e709f208defad0e0f9eff208fa
:10019000d0e0fed0e0f208eef208e473a81ce2fe24
:1001a00008e208f520e9c0e07908e208f709dffa7b
:1001b000e208ffd0e0f9e208c0e0e208c0e0881cf5
:1001c0005392fe22e584f208e585f222e208f584e6
:1001d000e2f585227403800474028000c9c0e0e562
:1001e0001cc399f51cc912012ad0e0f922740380be
:1001f00000c8c0e0e51cc398f51cc8120137d0e068
:10020000f82275bc0075bc005392fe22800f8a82d2
:100210008b835392fee0f5bda3aa82ab83ecf8ed8d
:10022000f9e824ff1ce934fffde84970e15392fe30
:1002300022e5bdf9e5bcfae9fb5392fe227400f514
:10024000d374032408f5d25392fe22a2afe433f80c
:10025000c2af5392fe906270e0a2e740f5e9c3336b
:10026000906272f0906270e0d2e0f0e0a2e740fbb2
:10027000e8a2e092af2274fa120168a2af33f8c28a
:10028000afed900003f0eca3f0a37462f0a37473dd
:10029000f0a3e4f0e9a3f0a37412f0a37442f0eb2e
:1002a000906272f0ea906271f07400f5d575d40333
:1002b00075d601906270e0d2e1f0e0a2e740fbe881
:1002c000a2e092af7f0102019c5392fe906276e021
:1002d00075c6807480659e70fa9062707408f02212
:1002e000c008c0098908750900740b780812015309
:1002f000fae5094480fbd009d0085392fe2274f736
:10030000120168909093e064bf7063e5c7f508122e
:10031000020275c7007c937d007a007b9012020c6c
:100320007c5d7d077aa37b9012020c909094e01480
:10033000f5097f00801674032ffef91202e0eec467
:10034000540ff5c77c007d0812020c0fefc395090e
:1003500040e48508c71202318a088b09a808a90958
:10036000909095e0687003a3e069703e8038e5c71f
:10037000f5087fa57e02eef91202e08a828b83eef9
:10038000c4540ff5c778007908e02fffa3e824ffd5
:1003900018e934fff9e84970f00eeec3943040d606
:1003a0008508c7ef70047901800279007f0402019b
:1003b0009c5392fe900001e090001bf0900002e040
:1003c00090001cf0e59d54186410700890001be02c
:1003d000a2e0403de5c7f8790075c700909000e0c5
:1003e000640270010988c7e9a2e050251202fee903
:1003f000601f9000017403f090001ce0900002f078
:1004000005929000c7e0f582a3e0f5830592120102
:10041000661202c9900001e4f012023d1206b11208
:1004200006e112073180fb74f8120168151c151cd7
:10043000a81c1201c490620ee0fee4f0906211e08c
:10044000ffa2e450197480f09000247407f01206a3
:100450003a6006120656120166900024e4f0efa2fc
:10046000e2500b906211e4f0900024f08060900064
:1004700024e0f87402687042906216e0ff90003b3e
:100480001201edeff97a207b621206ed051c051cc6
:10049000051c8f0890003e12062f1206222f12060e
:1004a0004512063d6004744080027448906211f069
:1004b000e849600302060f0205f27406687006122e
:1004c0000656120166900024e0600302059cefa22c
:1004d000e0400302060f750833750900750a0078bd
:1004e000081201d479087a207b621206ed051c05fa
:1004f0001c051c900040e4f0a3f0900033e054e0b1
:10050000600e24e0606a24a0604024e06071807e78
:10051000a3e014602624fe601d24fe600a24fc6013
:100520001f24fe60208067120ab2900024e0640459
:10053000706474608062120aac80ef120aa680eace
:10054000120be280e5120d1980e0a3e0600e24faa0
:10055000600f24fe601024fe601180321208e280d9
:10056000c9120afa80c4120bbc80bf120cbb80ba3d
:100570009000407459f0a37407f012075980ab90b3
:1005800000407430f0a37408f0120830809c900092
:10059000247404f0809c7440906211f0900024e078
:1005a000f8740168705e7f0290003ee0f8a3e0f905
:1005b000c3e89420e994005007e8f50a7f0a800315
:1005c000750a2090003b1201eda90a7a207b621285
:1005d0000706051c051c051c850a081206222508ad
:1005e00012064512062fef906211f0e50ac394201f
:1005f000501d12063a60061206561201669000243b
:10060000e4f0800b7405687006120656120166ee5f
:1006100090620ef0a81c1201cc051c051c7f030281
:10062000019c90003be0f9a3e0faa3e0fbe922c3c0
:10063000e09508f0a3e09400f022900040e0f8a3d9
:10064000e0f9e84922f9e43afa90003be9f0a3ea3c
:10065000f0a3ebf0a3220592900040e0f582a3e026
:10066000f583059222c008c0097800742528f58218
:10067000e43400f583e95392fef008e8c3940540a2
:10068000ea7800742a28f582e43400f583e9f0085a
:10069000e8c3940540edd009d008225392fe9000a3
:1006a0001d7402f0a3e4f0900024f07903120665b3
:1006b00022c008c00975084175090078081201d8e0
:1006c0007c007d007a427b00120dee051c051c901b
:1006d000001d7402f090620f04f0e0a2e750fb806e
:1006e000b553f4fed29043fe015392fe2212071f2f
:1006f00060105392fee012010de9240109e43afa78
:10070000dcf05392fe2212071f60101200ec53928d
:10071000fef0e9240109e43afadcf05392fe228a61
:10072000828b83e9fca81ce2f908e2fa08e2fbec00
:1007300022eec0e05392fe906206e0f8906202e082
:10074000fe906204e0e8a2e2500312069beea2e0f3
:100750005003120427d0e0fe2274f71201689000c3
:1007600034e0700302081514600302082590001b92
:100770007401f0900024e0f87038900039e0f8a39c
:10078000e0f9e849700d9000cd7402f0900024e487
:1007900002082a90003b7483f0a37400f0a3e4f0f5
:1007a000a3e8f0a3e9f09000247402f09000cd04d7
:1007b0008078740268706e900035e02440f508a3dc
:1007c000e03400f509c39408400c900024e4f09054
:1007d00000cd740a8054e508541f701285080a85fc
:1007e000090b7405780a120144a90a12024b900001
:1007f00039e0240354fcf97c837d007404780812ea
:100800000153aa08ab09120276900024e4f090008c
:10081000cd7405801590001b7402f0900024e4f064
:1008200075c90880069000247404f07f0402019cbe
:100830005392fe900034e06403701a90003b74c938
:10084000f0a37400f0a3e4f0a37406f0a3e4f09026
:10085000002404f02280009000247404f0225392bb
:10086000fe9000c3e4f0a3740ff02274fa12016842
:10087000151c151ca81c1201c4eafcebf87a007bbd
:1008800000088038e8604d05929000c3e0fda3e0c9
:10089000f5838d82a3e493fdec6d6034e96d7009fe
:1008a0009000c3e0faa3e0fb189000c3e02efea383
:1008b000e03400ff9000c3eef0a3eff09000c3e03f
:1008c000f584a3e0f585e4059293fe70b7e8600433
:1008d0007a007b00a81c1201cc051c051c7f0102bc
:1008e000019cc008120cad60030209baa3e0f8a392
:1008f000e060030209baa3e064027002a3e06003af
:100900000209ba900033e02480600914604f14603b
:100910005c0209bae860030209ba900030e06004a2
:100920007801800278009000c5e8f0a3e4f0900020
:100930002fe0600a9000c5e04402f0a3e4f09000cc
:1009400024e06404601490003b74c5f0a37400f0cc
:10095000a3e4f0a37402120d10f0d0082290001d41
:10096000e0640470559000c5e4f0a380d0e8547fa3
:10097000f50890001de064047040e508c39406503b
:1009800039741d2508f582e43400f583e85480604d
:1009900018a3a3a3a3a3a3a3e06403700478018016
:1009a0000278009000c5e88091e582240cf5825021
:1009b000020583e0640370e980e3900024740480fe
:1009c0009874f9120168151c151ca81c1201c4e9c1
:1009d000fa900039120cb36003020a9090001de0f7
:1009e0006404600b900037120cb36003020a90900d
:1009f0000033e0541f6009146023146012020a904f
:100a0000900035e064017015ea90002f020a95907d
:100a10000037e0547ff508900035e06004790080ed
:100a200077e508c394065068e50890620ef0741ddf
:100a30002508f584e43400f585900037e0548060a3
:100a400021ea6004741080027440906211f0ea6040
:100a50000474038001e40592a3a3a3a3a3a3a3f0ba
:100a60008025ea6004742080027480906214f0eaa9
:100a7000600474038001e4c0e0e584240cf582e4a2
:100a80003585f583d0e0f05392fe90620ee4800548
:100a90009000247404f07901a81c1201cc051c05f7
:100aa0001c7f0202019c79001209c12279011209fe
:100ab000c1225392fe900037120cb37018a3120c8f
:100ac000b37012900035e0f8a3e0f9e85480fae939
:100ad000fbea4b6002801ce8906200f090001d6011
:100ae00009e06402700c7403f022e0640370037484
:100af00002f0229000247404f02274f812016812ab
:100b0000085e900035e0faa3e0f914600814600d67
:100b100014603180377b007a0079018033eafb7af8
:100b200000790212086b120ba7e92402f9e43afae1
:100b300089828a83e493f8740193f990003ee8f087
:100b4000a3e9801ceafb7a00790380047b007a0029
:100b500012086b120ba7a37b801200eca3f0a3e496
:100b6000f090003be0fca3e0fda3e0feec4d4e90d6
:100b70000024700474048029e06404602590003926
:100b8000e0faa3e0fb90003ee0f8a3e0f9c3ea98a6
:100b9000eb99500890003eeaf0a3ebf0900024742b
:100ba00001f07f0302019c90003beaf0a3ebf0a36d
:100bb0007480f090003be0f9a3e0fa22120cad70d3
:100bc00010a3120cb3700aa3e064017002a3e060ea
:100bd00003020af390003b741ef0a37400120d068a
:100be000f02274f812016890001de06402700302a4
:100bf0000c94900037120cb36003020c94a3120cf7
:100c0000b36003020c94900036e06003020c94126f
:100c1000085e900035e07003020c9c7b007a00793e
:100c20000212086b8a088b09ae08af09ee4f6064a8
:100c3000900035e0f88e828f83a3a3a3a3a3e4934f
:100c4000c0e0e8fad0e06a70d290001d7404f0e8c9
:100c5000a3f0750a008e828f83a3a3a3a3e493f865
:100c6000e50ac3985044850a08741f2508f582e4f4
:100c70003400f583e4f07b007a00790412086b8a73
:100c8000828b83e58245836007a3a3a3e49370e688
:100c9000050a80c19000247404f0800e90001ef0bc
:100ca00090001d7403f0f9120665020ba25392fe28
:100cb000900035e0f8a3e0f9e8492274f8120168e1
:100cc00090001de064047019900033e0648170119d
:100cd000120cb0700c900039e064017002a3e06067
:100ce000079000247404801a900037e0241ff50850
:100cf000a3e03400f50990003be508f0a3e50912f4
:100d00000d06f0020ba2f0a3e4f0a304120d1022d2
:100d1000f0a3e4f0900024042274f9120168151c79
:100d2000151ca81c1201c490001de064046003029d
:100d30000dbe900033e064016003020dbe900039e7
:100d4000120cb3707912085e7b007a0079021208e7
:100d50006b8a828b83e5824583600fa3a3a3a3a341
:100d6000e493f890001ee06870de7b007a0279045c
:100d700012086b8a828b83e58245836041059290dd
:100d80000035e0f8a3e0f9900037e0faa3e0fb8536
:100d90008284858385a3a3e493fcea6c7001eb60f5
:100da0000d0592a3a3a3e493fce86c4970bc741fe7
:100db0002af58274003bf583e85392fe800590008b
:100dc000247404f0020a985392fe2274fa12016805
:100dd000151c151ceafeebffa81ceef208eff2aaa8
:100de0001cab937901120dc780ee1200932274faa6
:100df000120168e51c2406f8e2fe08e2ffee4f60ef
:100e000014ecf88a828b83e8f0a3ee24ff1eef3403
:100e1000ffff4e70f27f0102019cffffffffffff0b
:100e2000ffffffffffffffffffffffffffffffffd2
:100e3000ffffffffffffffffffffffffffffffffc2
:100e4000ffffffffffffffffffffffffffffffffb2
:100e5000ffffffffffffffffffffffffffffffffa2
:100e6000ffffffffffffffffffffffffffffffff92
:100e7000ffffffffffffffffffffffffffffffff82
:100e8000ffffffffffffffffffffffffffffffff72
:100e9000ffffffffffffffffffffffffffffffff62
:100ea000ffffffffffffffffffffffffffffffff52
:100eb000ffffffffffffffffffffffffffffffff42
:100ec000ffffffffffffffffffffffffffffffff32
:100ed000ffffffffffffffffffffffffffffffff22
:100ee000ffffffffffffffffffffffffffffffff12
:100ef000ffffffffffffffffffffffffffffffff02
:100f000012010002000000205824feff0000010230
:100f1000030109021b0001010480250904000000ef
:100f2000fe01020409210d03e84000010104030948
:100f300004120342006c00750065006700690067d9
:100f400000610016034c006f007700200045006e22
:100f50000065007200670079000a03310032003337
:100f6000003400080344004600550000ffffffff67
:100f7000ffffffffffffffffffffffffffffffff81
:100f8000ffffffffffffffffffffffffffffffff71
:100f9000ffffffffffffffffffffffffffffffff61
:100fa000ffffffffffffffffffffffffffffffff51
:100fb000ffffffffffffffffffffffffffffffff41
:100fc000ffffffffffffffffffffffffffffffff31
:100fd000ffffffffffffffffffffffffffffffff21
:100fe000ffffffffffffffffffffffffffffffff11
:100ff000ffffffffffffffffffffffffffffffff01
:1010000002110802328affffffffff023ef3ffffdb
:10101000ffffff023fa2ffffffffff024059ffff5c
:10102000ffffff022704ffffffffff023cb6ffffa9
:10103000ffffff02413bffffffffff023ff9ffff02
:10104000ffffff023f7dffffffffffffffffffffef
:10105000ffffff023270fffffffffffffffffffff9
:10106000ffffffffffffffffffffff023e2dffff20
:10107000ffffff0240cbffffffffff023eb0ffff7d
:10108000ffffff023295ffffffffffffffffffffa4
:10109000ffffffbf3118f300000000000000000058
:1010a0000000df7582fe75837f7400121123e479de
:1010b000347802b800028004f709d8fce4900303f6
:1010c000784279078002f0a3d8fcd9fa7a447b09e8
:1010d000901144787279028015e493a3ad82ae83b7
:1010e0008a828b83f0a3aa82ab838d828e83d8e918
:1010f000d9e775827675838a74031211237582e3aa
:101100007583ff740112112375d00075813f75310d
:1011100000753203753303759f007593005392fe7b
:101120000210aec09ff59fe473d09f225392fed071
:1011300083d082c09fe493c0e0740193c0e0740246
:1011400093f59f220300000201020300000f00c379
:10115000a88ee8b19dcf7f5eb98b9f41efb055f46b
:1011600001fa00960064004b0032001e001400d605
:10117000be898e000106021213151429417671fff3
:10118000c1fbe84c90728be7b3518963ab23230218
:10119000841872aa612f3b51a8e53749fbc9ca0cd4
:1011a00018532cfd45e37102000040420f0000403f
:1011b0000000ffffffff0afaffffff000080006250
:1011c000000000ff7f00000500060007000000018e
:1011d0000001000001000102020300020000000003
:1011e00000020201000219000000093d0000e4ffb6
:1011f000fffffb349b5f80000080001000000000b8
:10120000000002000000ff000000000008050100cf
:1012100000000000010805000000000000070300b6
:10122000000080000100008000000000070a0400a8
:101230000000000007090000000d00000104070085
:10124000000000000201000002025b1b611b671b23
:101250006d1b731b791bdd1a4d1d291d071e9b1d60
:10126000a11d800004058000040606000000800027
:10127000040280000404800002000b0000008000d3
:101280000600401f0000e80300005917db13931904
:101290006514ad1d531d211cf51dd71a010000005a
:1012a0008000000040ffffff00ffffffff00000085
:1012b00000c000000012112c9dde0212112cb5dec0
:1012c0000212112ce0de0212112c2ddf0212112c61
:1012d00045df0212112c6ddf0212112cbddf02124c
:1012e000112ceddf0212112c4ee00212112c6ae0db
:1012f0000212112c86e00212112cabe00212112c0a
:1013000004e10212112c93e50212112c47e602129d
:10131000112c2c900312112c44900312112cb59017
:101320000312112cf8900312112cbff80212112c89
:1013300053f90212112cc9f90212112cdff9021211
:10134000112c0bfa0212112c20fa0212112c79fa2c
:101350000212112c9afa0212112cf8fa0212112c14
:101360003dfb0212112caefb0212112cd9fb021212
:10137000112c5dfc0212112c8cfc0212112cabfc06
:101380000212112cbffc0212112c04fd0212112cae
:1013900052fd0212112cfdf30212112c19f402124b
:1013a000112c4ff40212112c5df40212112c8ef448
:1013b0000212112cbbf40212112cc4f40212112cd3
:1013c00007f50212112c95f50212112c02f60212e9
:1013d000112c53f60212112c82f60212112cd6f6a1
:1013e0000212112ca8f70212112cb3f70212112cc1
:1013f000e6f70212112c17f80212112c68f80212eb
:10140000112ca5f80212112ce3930312112c039452
:101410000312112c2c940312112cf3920312112c91
:1014200007930312112c61930312112cc994031218
:10143000112ce0940312112c26910312112c5391bc
:101440000312112c0bf30112112c78f30112112c41
:10145000bef30112112ce7f30112112cf3f3011268
:10146000112c16f40112112c5af40112112ca1f4b2
:101470000112112cfff40112112c52f60112112c41
:1014800028f70112112ccff70112112cf5f70112d8
:10149000112c39f80112112cd2f80112112ce7f895
:1014a0000112112c25f90112112c45f90112112cf0
:1014b000a7f90112112cbaf90112112ccaf9011263
:1014c000112cb9fa0112112cc9fb0112112c3bfc91
:1014d0000112112ceffc0112112c8eb90112112cea
:1014e00034bb0112112cb8bb0112112c0cbd01121e
:1014f000112c7bbd0112112cb5bd0112112c7fbe28
:101500000112112c00bf0112112ce8bf0112112c85
:10151000f9c00112112cebc10112112c25c30112cb
:10152000112c7ec30112112ce6c30112112c63c4cd
:101530000112112c04c50112112c76c50112112cb7
:101540000fc60112112c75c60112112ce3c601122f
:10155000112c38c70112112cc0c70112112c76c8ea
:101560000112112c2cc90112112ceeca0112112cde
:101570001ccd0112112c63cd0112112cd6cd0112fc
:10158000112c46ce0112112c94ce0112112c3ed0fa
:101590000112112cded00112112c6ad10112112c72
:1015a000abd10112112c2cd30112112c8dd30112ad
:1015b000112c97d40112112c8dd50112112cbcd6ef
:1015c0000112112cefd70112112cd2d90112112cba
:1015d00088dc0112112c39dd0112112cdbdd011226
:1015e000112ccade0112112c3ddf0112112ca9e3ce
:1015f0000112112c2be60112112c00e70112112c03
:1016000052e90112112c72ea0112112c9beb01120a
:10161000112cb2eb0112112cc9f20112112c58fd40
:101620000212112c97fd0212112cc4fd0212112c72
:10163000f1fd0212112cdefe0212112cb5ff021276
:10164000112c1a8f0312112c738f0312112cd48fab
:101650000312112c00800112112c1e800112112c7a
:101660003b800112112c58800112112c8081011233
:10167000112cfa810112112c12840112112c788480
:101680000112112c03850112112c43850112112c1a
:1016900077850112112cb9850112112c27860112b0
:1016a000112cd5860112112ce3860112112c1e88f3
:1016b0000112112c608a0112112ce68a0112112ce0
:1016c0001a8b0112112c5e8c0112112c878d0112c4
:1016d000112ca78d0112112cce8d0112112c0a8e06
:1016e0000112112c3d8e0112112c3e920112112c6f
:1016f00066920112112cb2920112112c3999011229
:10170000112c85990112112cc6990112112c729a73
:101710000112112c399b0112112cc69d0112112ca2
:10172000339f0112112ca39f0112112cdca1011275
:10173000112c57a20112112c9ba20112112ce7a20d
:101740000112112c3fa30112112ce0a30112112c44
:101750002aa40112112c85a40112112c8fa40112ac
:10176000112cc6a50112112c7da60112112c03a764
:101770000112112c5ea70112112c1ea80112112cae
:10178000bfa80112112c49aa0112112c6aaa011238
:10179000112ca4ac0112112cd6ad0112112c7aae71
:1017a0000112112ceeae0112112cc7af0112112c37
:1017b000cab00112112cc2b10112112cd3b1011205
:1017c000112cddb10112112cdab30112112c35b438
:1017d0000112112c64b40112112ccbb40112112c82
:1017e000fab40112112c8db50112112c21b601127f
:1017f000112c82b60112112cf8b60112112c2eb741
:101800000112112c63b70112112c82b70112112c95
:10181000dbb70112112cf5b70112112c22b80112fd
:10182000112c30b80112112c59b80112112cc8b862
:101830000112112c25fe0112112ce1fe0112112cb6
:1018400003ff0112112c4eff0112112c91ff011206
:10185000112c73930312112c76a00212112ca2a04a
:101860000212112ceaa00212112c46a10212112c14
:10187000a7a10212112c6ca20212112c87a3021232
:10188000112c19a50212112cc2a80212112ca0aa07
:101890000212112ca2ad0212112ce6ad0212112c73
:1018a000d2ae0212112cd7af0212112c51b102127a
:1018b000112cc6b10212112ce9b10212112c13b372
:1018c0000212112c00800312112c2c800312112cf7
:1018d00043800312112c47800312112ce180031264
:1018e000112cd1820312112c00800212112c66805f
:1018f0000212112c83800212112cb0800212112cc2
:10190000dc800212112c10810212112c5f81021254
:10191000112c8e810212112cf1810212112c4e8297
:101920000212112c1c830212112c96830212112c0c
:1019300037850212112cef850212112c82880212b7
:10194000112c048c0212112c488c0212112ca18c27
:101950000212112c578d0212112c288f0212112cf9
:10196000b88f0212112cf98f0212112c4f90021213
:10197000112cca900212112cef900212112c4291dc
:101980000212112c83910212112cfe920212112cc0
:101990001f940212112c30940212112cac950212d9
:1019a000112cc2950212112cea950212112ca1964b
:1019b0000212112cb6960212112ce8960212112c6a
:1019c000ee970212112c85980212112cbb9802126c
:1019d000112c03990212112cf7990212112c529a10
:1019e0000212112c399b0212112cac9b0212112ce9
:1019f000f09b0212112c029d0212112c6a9f0212fe
:101a0000112c9a9f0212112cfc9f0212112c65a01e
:101a10000212112c638d0312112c708d0312112ce4
:101a2000938d0312112cd68e0312112ce38e031208
:101a3000112c118f0312112c627a0012112ca97a29
:101a40000012112cc57a0012112c907b0012112c5f
:101a5000367d0012112c947d0012112cf57e00129f
:101a6000112c5e7f0012112c5e920312112c8c92ad
:101a70000312112cb6920312112c6a830312112c3b
:101a8000f3830312112c25840312112c9584031265
:101a9000112c37850312112c5f850312112c94949d
:101aa0000312112ca0940312112c30500012112c8f
:101ab00086500012112c52510012112c7253001238
:101ac000112c0c550012112cd2550012112cd65687
:101ad0000012112c77570012112ce4570012112c10
:101ae0009a580012112c025b0012112c825b00121a
:101af000112cdf5b0012112cbb5c0012112c655df8
:101b00000012112c625e0012112c595f0012112c70
:101b100022640012112c6f660012112c3a69001217
:101b2000112cbb6b0012112c9b6e0012112c6270d9
:101b30000012112cf0720012112c5c770012112c83
:101b40008f780012112c75790012112ceb7900128c
:101b5000112c3f7a0012112c858b0312112c038c4f
:101b60000312112c198c0312112c2f8c0312112c1f
:101b7000458c0312112c668c0312112c7c8c0312e1
:101b8000112c928c0312112cefcd0212112c7fce4e
:101b90000212112c02cf0212112c28cf0212112c8a
:101ba000f4cf0212112caad00212112cead0021288
:101bb000112c70d10212112ce2d10212112c44d23c
:101bc0000212112cc1d20212112cd4d20212112ce9
:101bd000e8d20212112c1dd30212112c4fd3021283
:101be000112c81d30212112cc7d30212112c07d44d
:101bf0000212112c5bd40212112c6ad40212112c85
:101c000073d40212112c06d50212112c3dd60212e9
:101c1000112cd9c40212112ce8c40212112cdcc5fb
:101c20000212112cf6c50212112c9dc70212112ca2
:101c300052c80212112cbbc80212112ce0c80212a9
:101c4000112c03c90212112c5bc90212112ca6c956
:101c50000212112cf0c90212112c39ca0212112cd5
:101c600098ca0212112cbeca0212112cdeca02122c
:101c7000112c00cb0212112c2acb0212112c82cb78
:101c80000212112cdbcb0212112c28cc0212112cc7
:101c900070cc0212112c90cc0212112ca3cc021287
:101ca000112cb3cc0212112cc5cc0212112cd3cca6
:101cb0000212112ce1cc0212112cf1cc0212112cc7
:101cc00001cd0212112c6acd0212112c96cd0212f6
:101cd000112ca0cd0212112ca9cd0212112cbbcdba
:101ce0000212112ca2890312112ccf890312112c7c
:101cf00035b30212112c59b30212112c6eb3021219
:101d0000112c0cb40212112c6bb40212112cc4b49d
:101d10000212112cd9b40212112c24b50212112c6a
:101d2000bbc10212112c3dc20212112cd9c30212e6
:101d3000112c61c40212112cb5870312112c1788c3
:101d40000312112c3b880312112c8a880312112cc8
:101d5000de880312112c7f890312112c988903123b
:101d6000112c5fd60212112c7cd60212112c8cd7aa
:101d70000212112cebd70212112c93d80212112c43
:101d800012da0212112cbeda0212112c0cdb021232
:101d9000112c71db0212112cd7db0212112c29dc61
:101da0000212112cb5dc0212112c30dd0212112ca2
:101db00009de0212112c63e60212112cb7e802129e
:101dc000112cebe80212112c61e90212112cabe983
:101dd0000212112cdde90212112c08ea0212112c58
:101de00037ea0212112c6bea0212112c93ea02124a
:101df000112cd0ea0212112cf2ea0212112ca7ebdc
:101e00000212112cfbeb0212112c16ec0212112cf7
:101e1000b0850312112c17860312112c778603123a
:101e2000112c79860312112c8f860312112c338703
:101e30000312112cc4910312112ce2910312112ce4
:101e4000d7ed0212112cb7ee0212112c9eef0212e6
:101e5000112ca6ef0212112caeef0212112c07f07a
:101e60000212112ca8f00212112ca5f10212112c51
:101e7000d8f10212112c11f30212112c6df302127f
:101e8000112ca3100012112c917f0012112c4194df
:101e90000312112cf89403e066701008a3e066703a
:101ea0000a08a3e066700408a3e06622c3e7960868
:101eb00009e7960809e7960809e796a2d265d033a4
:101ec00022c3e09608a3e09608a3e09608a3e09654
:101ed000a2d265d03322c021c3e096f52108a3e049
:101ee00096422108a3e096422108a3e0964221a24f
:101ef000d265d033e5217001d3d02122c3e7960803
:101f000009e7960809e7960809e79622c3e09608cc
:101f1000a3e09608a3e09608a3e09622c021c3e0c0
:101f200096f52108a3e096422108a3e096422108f5
:101f3000a3e09645217001d3d02122bb0102e72204
:101f4000c0925392fec082c08389828a83bb000301
:101f5000e08002e493d083d082d09222bb0015c0ef
:101f6000925392fec082c0838a838982f0d083d04c
:101f700082d09222bb0101f722080808eac0e0ebf8
:101f8000c0e086f0e7a4fa180986f0e7a42afa1858
:101f90000986f0e7a42afa180986f0e7a42afa19b4
:101fa00086f0e7a4fbe5f02afa190886f0e7a42bef
:101fb000fbe5f03afa190886f0e7a42bfbe5f03ac6
:101fc000fa18180986f0e7a4c5f02bfbe43afa19d1
:101fd00008e7c5f0c6a426f6e5f03bfbe43afa189c
:101fe00086f0e7a4f6e5f00826f6e43b08f6e43ac6
:101ff00008f6d0e0fbd0e0fa22e4cfc0e0e4cec0a7
:10200000e0e4cdc0e0e4ccc0e075f020e626f608c0
:10201000e633f608e633f608e633f6181818ec331c
:10202000fced33fdee33feef33ffc3ec9709ed9784
:1020300009ee9709ef97191919400fffec97fc0962
:10204000ed97fd09ee97fe191906d5f0bfecf709db
:10205000edf709eef709eff7191919d0e0fcd0e018
:10206000fdd0e0fed0e0ff221220d0181818121f79
:10207000f91220bf191919221220bf1919190808bd
:1020800008e618181820e7e0121ff91220d01818d7
:102090001822090909e719191920e7dc080808e6d8
:1020a00018181820e703021ff91220d01818181268
:1020b0001ff91220d01818181220bf19191922e47c
:1020c000c397f709e497f709e497f709e497f7222c
:1020d000e4c396f608e496f608e496f608e496f665
:1020e000226017080808c6a2e713c618c613c61848
:1020f000c613c618c613c6d5e0e92260160808083c
:10210000c6c313c618c613c618c613c618c613c648
:10211000d5e0ea227009080808226016181818c6c7
:10212000c333c608c633c608c633c608c633c6d5c9
:10213000e0ea22e627f60809e637f60809e637f668
:102140000809e637f622e026f608a3e036f608a3eb
:10215000e036f608a3e036f622e026f008a3e036e3
:10216000f008a3e036f008a3e036f022c3e697f6c5
:102170000809e697f60809e697f60809e697f622b1
:10218000c3e0c696f608a3e0c696f608a3e0c69696
:10219000f608a3e0c696f622e056f608a3e056f647
:1021a00008a3e056f608a3e056f622e647f608092b
:1021b000e647f60809e647f60809e647f622e0464c
:1021c000f608a3e046f608a3e046f608a3e046f6c4
:1021d00022e066f608a3e066f608a3e066f608a328
:1021e000e066f622e0f608a3e0f608a3e0f608a30e
:1021f000e0f622e6f008a3e6f008a3e6f008a3e67e
:10220000f022e0faa3e0fba3e0fca3e0fd22eaf069
:10221000a3ebf0a3ecf0a3edf022e0fca3e0fda320
:10222000e0fea3e0ff22ecf0a3edf0a3eef0a3efbd
:10223000f022e0f8a3e0f9a3e0faa3e0fb22e8f043
:10224000a3e9f0a3eaf0a3ebf022cac0e0e6f0a312
:1022500008dafad0e0fa22cac0e0e0a30592f0a3bf
:102260000592daf6d0e0ca225392fefae9fb792110
:10227000e7f0a309dafae8f0a3ebf9f0a3ecf0a396
:10228000edf0a3eef0a3eff0a3e520f0a3e5f0f06e
:10229000a3e592f0a3e584f0a3e585f0a3e581f042
:1022a000a3e531f0a3e532f0a3e533f0a3d0e0fae3
:1022b000d0e0f0a3caf0eac0e0e0c0e07a007b0022
:1022c000225392fecac0e0ebc0e07921e0f7a309f7
:1022d000dafae0f8a3e0f9a3e0fca3e0fda3e0fe56
:1022e000a3e0ffa3e0f520a3e0f5f0a3e0c0e0a3a6
:1022f000e0f584a3e0f585a3d0e0f592d0e0fbd033
:10230000e0fae0f581a3e0f531a3e0f532a3e0f5d2
:1023100033a3d0e0d0e0e0c0e0a3e0c0e0ea4b703f
:10232000027a0122b90010bb0008e88af084f8aafa
:10233000f022e4fbc8fa22eb70227b10c833c8c934
:1023400033c9335007c39ac3dbf280069a50012a7f
:10235000dbeac833f4c8c933f4c9fa2275f008e4db
:10236000c833c8c933c933c99ac99b5004c92ac9db
:102370003bd5f0ecfbc833f4c8e4c9fa22600d0881
:10238000c6a2e713c618c613c6d5e0f322600c0830
:10239000c6c313c618c613c6d5e0f4227004226063
:1023a0000d18c6c333c608c633c6d5e0f4182225b7
:1023b0003210af08f532400c15338008f532400278
:1023c0001533d2af2200c0d0253210af08f53250fd
:1023d0000c05338008f53250020533d2afd0d0223d
:1023e0002532f58210af08f532400c15338008f520
:1023f0003240021533d2af85338322c5822532c5e0
:1024000082c583353310af07f5338582328007f5f7
:1024100033858232d2afc583222532f582e435334b
:10242000f583222532f584e43533f585222532f80b
:10243000e43533f9222532fae43533fb222532fc28
:10244000e43533fd22e4735392fe2532c582c0e0a9
:10245000e53334ffc583c0e0e532c3958224f8102c
:10246000af08858333858232800885833385823245
:10247000d2afcef0a3e520f0a37821e608f0a3deea
:10248000faeff0a3e58124faf8e608f0a3e608f0f5
:10249000a3e608f0a30808e608f0a3e608f0a315f1
:1024a000811581d0e0fed0e0f8158115811581e815
:1024b000c0e0eec0e0225392fe2532c582c0e0e5c6
:1024c0003334ffc583c0e0e532c3958224f910aff1
:1024d000088583338582328008858333858232d2b2
:1024e000afcef0a3e520f0a37821e608f0a3defa52
:1024f000eff0a3e58124fbf8e608f0a3e608f0a3db
:102500000808e608f0a3e608f0a315811581d0e0dd
:10251000fed0e0f815811581e8c0e0eec0e022535e
:1025200092fe853383853282e0a3fee0a3f5207816
:1025300021e0a3f608dffae0a3ffe0a3c0e0e0a3f8
:10254000c0e0e0a3c0e0e0a3c0e0e0a3c0e010afc3
:10255000088582328583338008858232858333d231
:10256000afd083d0825392fe0211295392fe85335d
:1025700083853282e0a3fee0a3f5207821e0a3f674
:1025800008dffae0a3ffe0a3c0e0e0a3c0e0e0a31f
:10259000c0e0e0a3c0e010af0885823285833380bd
:1025a00008858232858333d2afd083d0825392fea6
:1025b00022c0925392fec0d02532c582c0e0e533de
:1025c00034ffc583c0e0e532c3958224f210af0822
:1025d0008583338582328008858333858232d2af0a
:1025e000c8f0a3e9f0a3eaf0a3ebf0a37921e7098f
:1025f000f0a3d8faecf0a3edf0a3eef0a3eff0a374
:10260000d0e0f0a3d0e0f0a3d0e0f0a3e520f0a369
:10261000e5f0f0a3d0e0f0225392fe8533838532bb
:1026200082e0c0e0a3e0f9a3e0faa3e0fba37821f5
:10263000e0f608a3dffae0fca3e0fda3e0fea3e0e0
:10264000ffa3e0c0e0a3e0c0e0a3e0f5d0a3e0f585
:1026500020a3e0a3f5f0e0a3c0e010af088583332a
:102660008582328008858333858232d2afd0e0d034
:1026700082d083f592d0e0f8d0e032e584f0a3e593
:1026800085f022e0a3f584e0f585227404800674c9
:102690000280027401c0e0f4041223e0d0e01222b0
:1026a0004a227404800a7403800674028002740152
:1026b000c0e0f4041223e0d0e012225722d083d0ed
:1026c00082e9c0e0e493a3c386f0c5f095f0f90871
:1026d000e493a386f0c5f095f0700be493a3c3993f
:1026e0004005e9048002a3e475f002a42582f58286
:1026f000e5f03583f583d0e0f9e493a3c0e0e493fb
:10270000c0e022ffc0e0c0d075d008c092c082c037
:1027100083c0f0759800e5a8f8c2af5392fe90040c
:10272000e3e0d2e1f0753400e8a2e7e433fee8a28a
:10273000e792af1212fdd0f0d083d082d092d0d0e9
:10274000d0e032c082c0835392fe9004afe4f0a385
:10275000f0a3f0a3f0d083d0822274f71224b679cc
:1027600000121a1190046d122dc0123970eac3982c
:10277000f8eb99f99003fe1234ffc3e89ce99d4001
:102780002c9003fc1234ff900400e02af8a3e03bf5
:10279000f9e8c39cf8e99df99003f11230e0a3ec4d
:1027a000f0a3edf09003feecf0a3ed80239003f195
:1027b000122c6a9003fe122dcb9003fe12397090fa
:1027c00003f31230e09003fae07004740280011405
:1027d000f07aef7b03123983800ff08532828533e4
:1027e0008312268374021223c57f0202256b74f7bd
:1027f0001224b6e9fe9003fbe0f8ee600924fe60c7
:102800001d14601a80329003f8e0a2e35009e860da
:10281000279003fb148020c2e2f0d2e380199003da
:10282000f8e0a2e2500c740868600d9003fbe0042d
:102830008005c2e3f0d2e2f09003f9e07008900363
:10284000f774fff0804990600a1229f649703d90b4
:10285000618fe0c0e09003fbe0f87408c398f8d003
:10286000e0b800028004c313d8fcf52174ff652191
:10287000700990600ae4f0a3048010e5212401f8b7
:10288000e43400f990600ae8f0a3e9f012275a0254
:1028900027e974f71224b6e9fe24fc600624fe60e2
:1028a0002a800d9004c9e06401705d1217238058de
:1028b00090041ce064017013900416e4f0ee700bb9
:1028c0007b091231d1fa7900123d65900416e0704f
:1028d0000890041474fff0802f90618fe0ff79005e
:1028e000121a118b22a922900418e02af8a3e039c9
:1028f000f9740f5ffae82af8e439f990040e1230ff
:10290000e07a0c7b041239830227e974f71224b6ab
:1029100074fe1223e012267b9004661229f624121c
:10292000fae439fb90605ce060088a828b83e0d235
:10293000e1f0e82430fce439fde82432f584e439a0
:10294000f58590605ae0700690605ee0603a8a8299
:102950008b83e0a2e1401dd2e1f0e82422f582e47d
:1029600039f583122c6012239c8c828d83e521f033
:10297000a3e522f0e40592f0a3f079008532828588
:1029800033835392fe0227e1e8241ef582e439f5f1
:1029900083123967858482858583e02ef0a3e03f2a
:1029a000f08c828d830592e0fca3e0fdc30592e0ec
:1029b0009ca3e09d50c488828983a3a3a3a3a3a35f
:1029c000a3a3a38582848583858a828b83e0a2e189
:1029d000500474088002743e0592f07b028882895c
:1029e000830592a3a3a3a3a3a3a3a3e0fa79001250
:1029f0003d6579018086123974e82274f51224b697
:102a000074fe1223e012267b1230adf584e43ff50c
:102a1000850592e0fc7003022c5bee242ef582e427
:102a20003ff58305921239708e828f83a3a3a3a3ef
:102a3000a3a3a3a38582238583248e828f83a3a34c
:102a4000a3a3a3a3a3a3a3aa82ab83ee243412302f
:102a5000cb687003a3e069702d74026c7003022bc5
:102a6000f474016c7003022af4740c6c7003022c71
:102a70005b740d6c7003022c5b74096c60258a8298
:102a80008b8374228059ec14606a147003022bf457
:102a900024fa601c14600c146046147003022c3776
:102aa000022c5b906008e0a2e65003022c5b8030b1
:102ab000ee2439f582e43ff583801388828983a36d
:102ac000a3a3e064037003022c5b8882898312292c
:102ad000f64970e78a828b83e0641370037416f002
:102ae0007b02852382852483e0fa7900123d657993
:102af00001022c5dee2455123408ee244cfce43f18
:102b0000fdea24fff521eb34fff522e5216870038f
:102b1000e522697075ee244d122ceb8e828f8312a4
:102b20002c688c828d83e025e0f8e433f9e82403f7
:102b3000f85001098e828f83a3a3a3a31230e190e2
:102b40000497e0a2e050098e828f83a3a31230dca9
:102b50009004b8e4f0a3f0a3f0a37402f0900497fb
:102b6000e0a2e04003022c5b906062e4f08c828d76
:102b700083e0f875f0e2a4c8aaf075f004a42af97d
:102b8000e81230a21230e0022c5bea687002eb69b6
:102b90006003022c5b752109752200782112268fb3
:102ba000ee241bfae43ffb121e8b74021223c59025
:102bb0000497e0a2e05007eefaeffb123414e405ac
:102bc00092f0ee2422f582e43ff5830592122c6008
:102bd00012239cee2430f582e43ff583e521f0a337
:102be000e522f0ee2432f582e43ff583e4f0a3f031
:102bf0007b08805ae8240108500109ee245c123059
:102c0000cb687003a3e069705275210575220078c6
:102c10002112268fee2457fce43ffdee2424fae433
:102c20003ffb121e8b74021223c5eefaeffb121744
:102c30001de40592f08024eefaeffb121303e40585
:102c400092f00592900497e0a2e0500f7b07852355
:102c500082852483e0fa7900123d6579000231e330
:102c6000122df77403782122a3a3e028f0a3e03902
:102c7000f02274f81224b674fe1223e012267b9020
:102c80000466123c551229fbe9705012290be970b9
:102c90004ae584242ef582e43585f583e02401f0ad
:102ca000a3e03400f0906008e0c0e0e5842436f54d
:102cb00082e43585f583d0e0f0e584241ef582e4d6
:102cc0003585122cef0592a3a3e028f0a3e039f09c
:102cd000059290046612340e123983853282853350
:102ce0008312268374021223c5803ff582e43ff5e8
:102cf00083122cf522e0f8a3e0f9e828f8e933f98b
:102d000022123743f582e43ff58312372b1217adb9
:102d1000ee241ef582e43ff5831230b924fcf8e975
:102d200034fff98e828f831230dc7f0102256b74b1
:102d3000f71224b674fe1223e012267b9004d612fa
:102d4000397d9004d6122dc0ac82ad839004bdc8ed
:102d5000241ef584e438f5850592e0f8a3e0f9e84f
:102d600028f8e933f9900499e0f521a3e0f522125f
:102d70002de10592e028f8a3e039f98c828d8312c9
:102d800030e09004b8122dd48c828d83122dcb901c
:102d900004ba122dd47a207b4e1223248821892252
:102da0008c828d83e09521f0a3e09522f09004bf02
:102db000122dd4e828f8e933f9e812309a0227da1c
:102dc000e0f8a3e0f5838882a3a322c3e098f0a3f0
:102dd000e099f022123974900499122df7122de126
:102de00022e88521f0a4c8aaf08522f0a42afa8559
:102df00021f0e9a42af922e0f521a3e0f5222274ca
:102e0000f31224b674fe1223e012267b1230adf5c5
:102e100023e43ff524852382f583e0640c70119050
:102e20006008e054036009852382852483740df0d3
:102e3000ee2412f584e43ff5850592e0a2e3500804
:102e4000c2e3f0059202307e8e828f830592a3a3a7
:102e5000858221858322906062e0600e7910121acb
:102e60001185218285228312397d1229fbe96003b5
:102e700002308712290be96003023087906008e076
:102e8000c0e0ee2436f582e43ff583d0e0f09061b7
:102e9000d5e0f89061d7e06805926005e0d2e28065
:102ea00003e0c2e2f005929004ba12340e90606220
:102eb000e06016ea24c0faeb3437fb123d3a900486
:102ec000bf1230b912309a8012123d249004bf1202
:102ed0002cf1906064e028f0a3e0391230d324ff95
:102ee000f0a3e034fff0ee242b1230cb9004bcf0c2
:102ef000ee2420123408ee242ef525e43ff526eecc
:102f0000245cf584e43ff585ea4b7003022fbc9006
:102f1000049be0f8852382852483e0fc702b12302b
:102f2000be6003022fbcee24391230c16003022fb1
:102f3000bce8a2e05003022fbcea2401f8e43bf90c
:102f4000900499e8f0a3e9805d740d6c706e123006
:102f5000be7069ee24391230c17061e8a2e0405cb5
:102f60008584828585838525848526850592e0f87c
:102f7000a3e0f90592e0c398f8a3e099f9e824ffeb
:102f800018e934fff9ea24010a50010bc398eb99c0
:102f90009004995006eaf0a3eb800b1230e08523f1
:102fa0008285248374021230d3f8a3e0f99004bd23
:102fb0001230e0eefaeffb122d2f805a9004997434
:102fc00001f0a3e4f0ee241e122ceb852182852271
:102fd00083122c6a9004b81239708521828522836d
:102fe000122dcb852382852483e0640c70288525ef
:102ff00082852683e02402f8a3e03400f90592e0fc
:10300000faa3e0fbc3e89ae99b400b852382852461
:103010008374020592f08e828f835392fea3a3a342
:10302000a3a3a38582848583859060641239707a16
:10303000717b021223248922e82405f8e43522f961
:103040008584828585831230e08e828f83a3a3a33b
:10305000a312340e858482858583e0f8c3ea98eb59
:1030600099a2d265d0335007ea0592f0a3ebf05352
:1030700092fe12396d852582852683122c6a900472
:103080006612340e12398385328285338312268389
:1030900074021223c57f0602256b1230a2e8f0a34a
:1030a000e92224eaf8e93402f99060642290046687
:1030b000e0fea3e0ffee240a22122cf5e822ee2423
:1030c000321230cbfca3e0fdec4d22f582e43ff55b
:1030d00083e022f0852182852283e022a3a3a3a39b
:1030e000e8f0a3e9f02274f51224b674fe1223e08e
:1030f00012267b8031c2e51231ccc0e09004c7e0db
:103100001231b1d0e0f09004c7e004f0a3e004f085
:10311000a3e004f09004cbe0700c7401f07b007a23
:10312000007900123d6590605ae0f521906002e060
:10313000a2e050047800800590605de0f89004c83b
:10314000e0fae52128f8e43400f9e86a7001e96062
:10315000589004c7e0f52374012523547ff521e539
:10316000231231b1e0f808089004c7e028f0748019
:103170002521f582e43460f5830592900466e0f839
:10318000a3e0c82408f584e438f585e0a2e70592b9
:10319000e040030230f5d2e5f01231c324db1231f6
:1031a000ccfa1231c34a02310585328285338380dd
:1031b0003b1231b522547ff8748028f582e43460e4
:1031c000f583229004c7e01231b5e022f01231d12c
:1031d00022900466e0f8a3e0c82408f582e438f5fc
:1031e00083e0228532828533835392fe12268374d4
:1031f000021223c57f0402256b74f51224b674fef7
:103200001223e012267b89210592900466e0f58264
:10321000a3e0f583858284858385a3a3a3a3a3a3c9
:10322000a3a3e0a2e740469004cae0f8906054e00f
:10323000c398f5229004cae02522f0ae82af8380c5
:1032400011ee2439fae43ffb12163fea4b600312f9
:10325000184985222374ff2523f5220470e3e52114
:10326000a2e640097900eefaeffb1217ad0231e356
:10327000c0e074f11225b18535c675a70075a100af
:103280007950121a2f7f01022618c0d075d01875f8
:10329000bf00d0d032c0e0c0d075d018c092c0827c
:1032a000c083c0f08535c6e591fe759b00f4f591ad
:1032b0005392fe906002e0a2e05004780080027811
:1032c000087900e844015e60031230e6eea2e550a2
:1032d00004f91231f9eea2e75029e5a8f8c2af903f
:1032e00004e3e0d2e0f0753400e8a2e7e433f9e863
:1032f000a2e792afe594a2e24009759403e594a297
:10330000e250faeea2e640030233d5906061e0f9a4
:103310009004c8e4f09004caf090046612340e8a57
:10332000828b83a3a3a3a3a3a3a3a3e0241060126f
:1033300024fc600924fc700f1227ee80661228928c
:103340008061121663805c900496e060051460143e
:103350008023906060e06480601be0c0e01233f284
:10336000d0e08010906058e0f890605ce028f8129f
:1033700033f2e028f0906060e064806016e0c0e026
:10338000900466e0f8a3e0c82413f582e438f583de
:10339000d0e0f0900497e0a2e05005122dff8003ea
:1033a000122c72906059e0f89004afe028f0906021
:1033b00058e0f89004b0e028f090605a1233e99099
:1033c000605e1233e990605ce0f89004b2e028f0af
:1033d0001216518004a2e75003123aabd0f0d0830a
:1033e000d082d092d0d0d0e032e0f89004b1e02882
:1033f000f022ea242cf582e43bf583e0fa74712a8a
:10340000f582e43404f58322f582e43ff583e0faa3
:10341000a3e0fb22c082c0835392fe9004bae4f082
:10342000a3f09004b8f0a3f01216699004bfeaf07c
:10343000a3eb02275474f71224b674fe1223e01291
:10344000267b1234fc12396dec2429f582e43df51b
:1034500083ec242bfae43dfb8a848b857401684954
:103460007012e0f80592e028fac39425402974db35
:103470002afa8023e0f521e88521f0a4f8aaf08556
:1034800021f0e9a42af90592e0fae82af8e439f9ea
:103490007a257b00122324eaf0ea131313541ff851
:1034a000ec28f8e43df9e82424f582e439f58305b5
:1034b00092e0c0e074075af8d0e0b800028004c37c
:1034c00013d8fca2e040288005e8cac39afaec248d
:1034d000e5f582e43df583e0f8eac39850ebec2a89
:1034e000f8e43df9e824c0f582e439f583e0faec2c
:1034f000242cf582e43df583ea0227da900466e0a5
:10350000fca3e0fd2274f61224b674fe1223e0122e
:10351000267b90041de09060026004740e800274ab
:103520000ff0900417e0906001f090096f122232c2
:1035300090619512223e1217b990041ce0f5217497
:103540000165219004157040e05402f97a1e7b0455
:10355000121687900415e0a2e050097aa37b047547
:10356000214080077a9d7b04752100a2e150047ef2
:103570008080027e0075230678231226937c1e7db0
:1035800004e5214e44018068e0a2e050087aa37b64
:1035900004784080067a9d7b04780005929004436d
:1035a0001226ae7c247d0474732521f582e434094f
:1035b000f5830592e048f912168d74011223c59027
:1035c000041ce0f86005740268702e900415e0a2f7
:1035d000e050087aa37b04784080067a9d7b0478cb
:1035e0000005929004631226ae7c447d04e84404f6
:1035f000f912168d74011223c5900415e0a2e0e4bf
:1036000033f912168175910090041de0906182607b
:103610000474c8800274c0f0853282853383122618
:103620008374021223c57f0302256bc082c08353bb
:1036300092fe906002740ff09003fae004f06403cd
:103640007002e4f0e02425906000f090096f1222ef
:103650003290619512223e9003f8e05420f9121640
:10366000811217b99003f8e0a2e15004d2f0800271
:10367000c2f0a2f0e43390600cf09003f8e0a2e115
:10368000503c75d90da2e55004784080027800e8de
:103690004403f5d9e0a2e550067aa37b0480047abe
:1036a0009d7b047906121657740675d9001470faba
:1036b000e5e170fc75e1959003ee740380049003de
:1036c000eee4f075910090618274c102275474f8a1
:1036d0001224b674fe1223e012267b1237861217cc
:1036e000b912377c12223290619512223e12379520
:1036f000123435123743f584e43ff585858482859d
:10370000858312372b1217ad123aa1e0a2e25018ae
:103710000592e0f8a3e0f58388820592a3a3e02454
:1037200002f89061d5e028f0022cdb123974ee2407
:1037300037f582e43ff583e8f0a3e9f07900eefa8b
:10374000effb22ee242c1230cb906000f07591003c
:103750009004d5e0906182f0ee24392274f81224ae
:10376000b61237861217b912377c12223290619541
:1037700012223e123795123435022d01ee2414f533
:1037800082e43ff58322900466e0fea3e0ff9060b0
:1037900002740ff022ee24361230cb906008f0ee67
:1037a00024181230cb906005f0ee24191230cb9023
:1037b0006006f0ee241a1230cb906007f02274f805
:1037c0001224b61237861217b912377c12223290a1
:1037d000619512223e123795022d0174f11224b622
:1037e00074fe1223e012267b7521007522007c6d89
:1037f0007d04801f888289831239678c828d83eed5
:10380000f0a3eff088828983e521f0a3e522f08818
:103810002189228c828d83123967ee4f70378c821a
:103820008d8312397d8a828b83e4f0a3f0aa21abc9
:103830002285328285338312268374021223c57f48
:103840000802256be5232527f8e5243528f98a8227
:103850008b83122c68eef8eff988828983a3a38a00
:10386000848b850592a3a3e0f523a3e0f5240592bc
:10387000e0c39523f523a3e09524f5248a828b8366
:10388000a3a3a3a3a3a3e0f525a3e0f526c3e52303
:103890009525e5249526a2d265d033403e8a828bb9
:1038a000831230e08a828b83a3a3a3a385828485bd
:1038b0008385123970c3e52398e52499a2d265d097
:1038c00033500d858482858583e523f0a3e524f0bc
:1038d0008c828d83eaf0a3eb02382c88828983a343
:1038e000a3a3a3a3a3e0f527a3e0f528c3e49527aa
:1038f000f525e49528f526c3e5259523e5269524a9
:10390000a2d265d03350288a828b83a3a3a3a3a31a
:10391000a3a3a3e0a2e7500302384488828983a3cb
:10392000a3a3a3a3a3a3a3e0a2e750030237f488b1
:10393000828983a3a3a3a3858284858385c3e49519
:1039400023fce49524fd123967c3ec9eed9fa2d2bf
:1039500065d033500b858482858583ecf0a3edf030
:10396000e8fce9fd023813e0fea3e0ff2290049991
:1039700012397422e0f8a3e0f9229003f1eaf0a3ef
:10398000ebf02274f71224b674fe1223e012267ba9
:10399000ea4b6031a2afe433fec2af1237db8a825a
:1039a0008b838016aa82ab8385828485838505926a
:1039b000e0f582a3e0f5831237dbe582458370e40e
:1039c000eea2e092af0227db74f31224b674fe126b
:1039d00023e012267beaf8ebf9e8497003023a8a01
:1039e000a2afe433f523c2af90046d123c8360159f
:1039f000a2e7501188828983a3a3a3a3a3a3a3a3af
:103a0000e0a2e7407f1234fcecfaedfb123c7012ae
:103a10003a988a828b83a3a3e0c39521f525a3e07e
:103a20009522f526c3ee9525ef9526a2d265d033d3
:103a30005052858482858583a3a3a3a3e0123a987c
:103a40000592a3a3e0f525a3e0f526e521c395257e
:103a5000f521e5229526f522c3ee9521ef9522a2c8
:103a6000d265d033501eecfeedff123aa10592e074
:103a7000d2e4f08882898312397d90046d1230e09f
:103a800079018008e523a2e092af79008532828532
:103a900033835392fe02308d2406fea3e03400fff0
:103aa00022ee2412f582e43ff5832274f51224b647
:103ab00074fe1223e012267b7900121a118a238bde
:103ac000247977121a2f9061b1e4f0e070f8740154
:103ad000f0e0640170f890046d1239709004661281
:103ae00030e0e8497012123c96e594a2e2400302ed
:103af0003c4f759400023c4f8882898312340e90ab
:103b0000046d12397d123c702521faa3e03522fba9
:103b1000ea24fdfeeb34ffff88828983a3a3a3a3dd
:103b2000a3a3a3a3e054f8601b9003eee0f8c3ee58
:103b300098feef9400ffc3e5219ee5229f4005e536
:103b400021123c689060607480f0e521c39523e504
:103b5000229524f9e5232401fae43524fb90046638
:103b6000123c832410604724fc600624fc6007801c
:103b700058123505807c90046d123c55e5844585ce
:103b800060270592a3a3a3a3a3a3a3a3e0a2e74056
:103b900018123c5d50138a218b22c3ea9eeb9f4092
:103ba00003123c67059212397a12362b8044123c7c
:103bb0005d50118a218b22c3ea9eeb9f4003123c89
:103bc0006712397a1217bf8029900497e0a2e0505b
:103bd000051236ce801ca985e5842412f582e439cd
:103be000f583e0a2e45008c2e4f01237be8003126d
:103bf000375caa21ab227930121a23eefaeffb7957
:103c000040121a237954121a2f7900121a118a239a
:103c10008b24e521c39523f8e5229524f9c3e89484
:103c200001123c5e500c1217d1e5e170fc75e121e8
:103c3000801d900368e0a2e04012aa21ab22121a74
:103c40001d9004b412220e123c9680031217d1125a
:103c500018df0231a9e0f584a3e0f58522c3e994d9
:103c600000a2d265d03322ea2401fee43522ff22ed
:103c700088828983a3a3122df788828983a3a3a3b3
:103c8000a3e022123c55858482858583a3a3a3a348
:103c9000a3a3a3a3e022e5a8f8c2af9004e3e0c287
:103ca000e0f0753400e8a2e7a2e792af220000003e
:103cb000853487c2af22c0e0c0d075d018c092c092
:103cc00082c083c0f074fc1223af5392fe9004e4d0
:103cd000e0601c12167b900368e054117008e5c682
:103ce00054384487f5c69004e4e4f0c2c78020c28b
:103cf000c7aa32ab331217cbe9640170129004e407
:103d00007401f08532828533831222021218d37532
:103d1000340074041223c5d0f0d083d082d092d066
:103d2000d0d0e03275c3007420c39afa744e9bfb66
:103d3000eaf5a2ebf5a35392fe22c02175c301e57b
:103d4000a2f521e5a375c300f9e5212420f8e934a3
:103d50004ef9e8c39af8e99bf9e8f5a2e9f5a3d092
:103d6000215392fe2274f51224b6e9feeaff8b215c
:103d7000753400a2afe433f522c2af900587e0f5b9
:103d80002474012524540ff523900586e0652370e3
:103d9000057900121a8fe52475f003a4f8a9f074d0
:103da0001428f8740539f9e82442f582e439f583da
:103db000eef0e82443f582e439f583eff0e824449b
:103dc000f582e439f583e521f0e523900587f0e5f8
:103dd00022a2e092af7f0402256bc082c08374fcf4
:103de0001223afe5a8f8c2afe5958532828533830b
:103df0005392fef0e596c0e07401122419d0e0f071
:103e0000e597c0e07402122419d0e0f0e8a2e7a21e
:103e1000e792af7403122419e4f08532828533836c
:103e200012220274041223c5d083d08222c0e0c0c3
:103e3000d075d018c092c082c083c0f0121c0f127f
:103e40003dda90061c12220ee58955ab900620f053
:103e5000e580900623f0900620e0f4f5899062d08a
:103e6000e0f8a2e15027900620e0a2e5501f53abf6
:103e7000df9062d0e0a2e0e433900626f0900620c6
:103e8000e0c2e5f07b307a007906123d65900620ad
:103e9000e0600e7b007a007906123d657900121c05
:103ea0001bc2c5d0f0d083d082d092d0d0d0e03227
:103eb000c0e0c0d075d008c092c082c083c0f012ec
:103ec0001c0f123dda90061c12220ee58a558df861
:103ed000900621f0e590900624f0e8f4f58ae86079
:103ee0000e7b017a007906123d657901121c1bc216
:103ef000eb80b0c0e074f01225b19061a9e06017ca
:103f0000c2afe589f8e5abf975ab00e4f090624b20
:103f1000f0888989abd2af90062be0640f7012e570
:103f2000c7f8900369e0f5c790ff1ce0f4f5ae8890
:103f3000c7e5bbf8e5baf521e8fb90062be025e0e4
:103f4000f8e433f9742c28f582740639f583e521f9
:103f5000f0a3ebf090062be02410fb7a0079061218
:103f60003d65e5a8f8c2af9004e3e0c2e2f0753425
:103f700000e8a2e7a2e792af7f02022618c0e0c0e5
:103f8000d075d018c092c0f0e5d1f875d100c2c08c
:103f9000a2e350097b037a007904123d65d0f00258
:103fa0003ea9c0e0c0d075d010c092c021c022c0d0
:103fb00082c083c0f05392fe9007b61240bd602ac3
:103fc000900771e0700c7401f07b007a00790412a4
:103fd0003d65ee9007b6f0e5c1c0e074b82521f567
:103fe00082e43407f583d0e0800be5c4a2e65006f6
:103ff0009007707401f00240acc0e0c0d075d010e2
:10400000c092c021c022c082c083c0f0c2e95392d6
:10401000fe900773e0fa900772e09a543ff8602927
:1040200074742af582e43407f583e0f974012a54a4
:104030003f900773f089c19007b4e06870197b0264
:104040007a007904123d65800ee5a8f8c2af9004ad
:10405000e3e0c2e312412b8053c0e0c0d075d01022
:10406000c092c021c022c082c083c0f05392fe9093
:1040700008401240bd60299007fbe0700b7401f00e
:104080007b00fa7904123d65ee900840f0e5f9c036
:10409000e074422521f582e43408f583d0e0800bfa
:1040a000e5fba2e650069007fa7401f0d0f0d08349
:1040b000d082d022d021d092d0d0d0e032e0f521f1
:1040c00074012521543ffea3e06e22c0e0c0d075ec
:1040d000d010c092c021c022c082c083c0f0c2ea0a
:1040e0005392fe9007fde0fa9007fce09a543ff8e7
:1040f000602974fe2af582e43407f583e0f974013f
:104100002a543f9007fdf089f990083ee068701945
:104110007b027a017904123d65800ee5a8f8c2aff2
:104120009004e3e0c2e412412b8081f0753400e892
:10413000a2e7e433f9e8a2e792af22c0e074f012fc
:1041400025b1906206e0f8900898e048f09062028d
:10415000e0543ff5217522007404782112239c90cd
:104160000898e04521f0a3e04522f0906204e05475
:104170003ef5217522007409782112239c9008993c
:10418000e04522f0900898e054046007e054fbf00a
:10419000121dbf900899e054016013e054fef090a6
:1041a00008a8e060097b037a007907123d65121dbb
:1041b000ef900899e05420600de054dff07b027a24
:1041c000007907123d65758b00c2e87f0202261850
:1041d000033f0000030004280d9808900790019405
:1041e000011b0195111b08f00939821f0ea4fecd99
:1041f00082210622fb381818162118f0ef3818f221
:10420000ed3828f2eb3868f003392a1fe73f08f051
:104210000428ba3868f0393c08f1053c88f1173cad
:10422000a8f10e3ce09f2c1f0128104a291fd63f01
:1042300015d0033827d00938009004289f3f012863
:10424000154101980128014a25d01f38041f831ffa
:104250000ea4fecd042205381421202807a0083f13
:104260000628681527d0e939202807d0f23883219d
:1042700078f10238042188f1083d0628a14001f0b8
:1042800004288438042807a005284d1528f1163c79
:1042900068f1143d77cf1240599202d80f3912d0ed
:1042a0000739699222d00439799242d0043805281e
:1042b000ef151e3fc09f04286c3f08f1233c88f196
:1042c000203d094028f1103d4540f7c759f2083d0f
:1042d0009303131183e1b9f00f3c23e00d3f09d89c
:1042e000ea38f9c30b3f68f1033d59f2f23c09d8b3
:1042f000f9390528bd150528f01501900128214a36
:10430000051f48f00c3c08f10a3868f1033c98f1ad
:1043100006390c960528f9150228843f47a00c960b
:104320000528f315531f0528e31507288ced0528ec
:10433000ec1501280195711b01280ce40528e515f1
:10434000511f88f10b3808f1073868f10939012845
:10435000214201f00b3947d009383521063f28f1b9
:10436000033838f10339351f341f04280ce047d0d7
:10437000033903280ce80528c815571f28f006380c
:10438000561f811f021f38f0063930215b90052827
:104390003b15fd3f88f1033d0428f71505288115dd
:1043a00047d0133808f10f392c470cf00c38c403f0
:1043b000b4125c110c3e04f00a38c103802801a03d
:1043c000411b063f3021043f07284ced4c1b5b90fe
:1043d00047d0173827d00328e8390ea4fecd022293
:1043e0000d39002208381021002914e00328dd3c93
:1043f0004c1bf13f05289e15ee3f46181221033f46
:104400000528021588f13039052811150128fb41ce
:10441000302100291be00a3d0428f6150528071560
:10442000f6c35192166a3b906b080428ed150428d8
:10443000fe150bf0fb3917d004382d1f0128c43f9f
:104440000328214701f008390328314701f00439d6
:10445000a2958090033fc29500920328b615201bb9
:1044600054900128b33f08f1053905211190012826
:10447000214a38f103390021023f302110216a031b
:104480000428c2156b033141224128f1093d02f095
:104490000239f29101f00b39ff28f191083f02f047
:1044a0000239529201f00339ff28f193f7cb1b0632
:1044b000023907a4b20c073d47d003286e38249078
:1044c0000328753f1690b6080428b115a6030428e2
:1044d000ae153be0f7ce28f1703c012807a0f09024
:1044e000a00668f1323d149030f0053938f1032808
:1044f0005e38073f50f003285a3958f103285738df
:1045000038f104380328ab15033f03288915032825
:104510007515012807d0033907a1563f424130f0f5
:104520000c3907a112d0033807d84e3887a0c140f4
:1045300041d04a38f7ce483f38f1033822d04438ca
:1045400007d8423907a1403f78f1123847d02d38bb
:1045500000f0033860f00639c14011d0073887a059
:10456000113f10f0033820f0ab3977cf0b3f00f04c
:10457000033810f0a539414181d004390328501582
:10458000093f03286c1568f10539414141d00239d2
:1045900007b810f0063903283115012807d0033871
:1045a00007d8123907a1103f40f00228fc39032830
:1045b000141507d8f838083fa1038340311231059c
:1045c00011d0023907a14bf0063c04281d15042820
:1045d0002e15fa3f042818151bf0fd3d38f103385d
:1045e0000328a115f7cd0328214701f00539032839
:1045f000314701f0033807a2f7ce224082d00a38b3
:10460000060304281415069376062611960404283a
:104610000e1571034112002871c021070438e7cf3d
:104620004198043f17d0043951980728214817d0e2
:104630000538f295202800901d3f07d20438c29516
:104640000092183f07d10438d2950094133f07d445
:104650000438e29500980e3f809028f10a3d319091
:10466000a10631f0063903a4b2950228aa1500a1cb
:10467000a2950228a615201b28f1633d08f10a39ee
:10468000012807d00739072851411128c14a0128bc
:1046900007a017d20539e3cf8ad0023813a007d27a
:1046a0000539b3cf4ad0023843a083d01e39310335
:1046b0001112310521d007393199072821480029e5
:1046c00015e0133f529502287c15454003d10d3962
:1046d000429502287615281f21990728214803d2e0
:1046e0000438629502286d1573cf834808f10939a3
:1046f00077cf17d0063907d203390ad1023887a0fd
:10470000349007d2073807d803383090543f07a8b1
:10471000023ff7c718f15a3927d04c39314011d030
:10472000493987d0073917d0453907d203390ad11b
:10473000413805f04b39414001f0483850903b3f3b
:1047400068f1153878f13938149017d03d3907d20f
:104750003d3987d003383490393f07d1373911902c
:104760000128214a409003286e15253f47d01c3868
:10477000249007d30c3911900128214a87d008389a
:104780005144002911e0043a514c023877cf17d038
:104790001b3987d003383490193f07d31739c140ec
:1047a00021d01438073f17d00f3907d30338309082
:1047b000023f009044900a3f249017d0053907d358
:1047c00005393490033fa09f44900221c190511bb2
:1047d0008121342124f0083927d004390c9cfd2b89
:1047e000ae3f10904490b7cf34f00e3953210328d8
:1047f000e195711b541f0f28cc9506282141f1c06b
:1048000081111c09143f0190511b0728f19f711b56
:10481000802114f00128863854f0fd2b0a38012835
:10482000ad3f541f032864151028cced03286d15e7
:1048300076217821501f0128a29a217001b221808f
:1048400001b221802ce30328601574210128ace417
:1048500008f1073c88f1033d02289715032821152c
:10486000011f0128349d03285015201f002168f0e6
:10487000093d069058f00339072836410228931560
:10488000fa3f0728504078f10439331f321f0421c2
:10489000500000dc01287c3828f1103d8340f7cb24
:1048a00031031112310521d0033903d1033900d866
:1048b000103807a41b901a90163f00d801286839b9
:1048c00098f107394b700128e2412b0800288e3ff0
:1048d000102807a04b701bf0fc2bed3c4a702241c6
:1048e00028f1303d02f00239f29112e0b20cfc2bbb
:1048f000e23c419031061111ff2be29f320452003d
:1049000022111a042a043240002862c018f1033927
:1049100027d00d3922f0093907280141b1090029b2
:1049200021e0093a0aa1073f42f00339face033fda
:1049300062f0f93818f1253977cf0ad1223887a0eb
:10494000203f02f00239529212e0b20cfc2bb33c31
:1049500068f1123d38f1153887d0133901283142fa
:1049600001f00f38402807a00728914231c0c1a0ac
:104970000728914a063f02280190710621121a0465
:10498000ff2bf29fb2084be0a60302280c1526036a
:104990000228091568f1293cfbf0273c629046701b
:1049a00002280115d2370428609662904670062dc1
:1049b0000128f915c23778f11839d04000d81538d8
:1049c000dbf0133c829046700128ed15d237764417
:1049d00000d40338060e023f060d41700128e3158e
:1049e000417086120128df153290b20c053d4670e9
:1049f0000128d915fb3f08f1063941721128c14a37
:104a0000012807a0ef28f7cf28f11e3d8340309002
:104a1000a00631031112310521d003398295043fdc
:104a200030f0043972950028cc1553c843d00238b1
:104a300023a007d4023803a130f0023903a283482f
:104a400092950028be1506900bf005380128ab158d
:104a5000591ffb3f0ea4fecd0122043902286a151e
:104a6000fa3f551f1121031f249008f10f390ad175
:104a7000033987d02438314011d0213905f021394c
:104a8000414001f01e3850901b3f48f1073828f193
:104a9000033858f1063987d0143877cf1490113f76
:104aa00078f1053911900128214a093f98f1093917
:104ab000829500288a15281f5490033f0090449047
:104ac0000ea4fecd0322043902283415fa3f132127
:104ad0002c1801210321741ff1900000f13701907f
:104ae000511b0728f19f711b802132210728914219
:104af00031c00728914abf28f7cf28f1063c88f13a
:104b0000043d92955e15281f44f0383814f00a3899
:104b100054f0fb2b8e3801280ce40128f615fc2bf1
:104b2000023f01289015009027d0283902d8083874
:104b300038f12439329001289215e237193f19e0f3
:104b400089f2043c38f11a39599238f103390128b5
:104b5000861512409103002951e2120e12d0f0384e
:104b6000012886150128b91512400128911531999f
:104b7000072821482c18fe2b553f0128104a0028f1
:104b8000a915fb2b2b3ff09f043fd09f023fb09f06
:104b90000028d0152c1ff23f28f1053c68f1033d99
:104ba0001490053f2090023f1090449041980728b0
:104bb000214838f1fe2b0a380028b515fe2b063f98
:104bc000217011e02180020001282141072821489d
:104bd000217811e021880200f7c7761571033112a0
:104be000a10501d4023907a80428649631150238ba
:104bf000f7c70428c4f6fb3c0200fe28f7cf641573
:104c000051417111a10501d80339012807a0649110
:104c10001f150338fe28f7cfc4f1fb3c0200f7c78d
:104c200053155141022807a00ad40339fd28f7cfb4
:104c30005111a10501d4023907a8c4910428659631
:104c400007150238f7c7563124f2fb3c0200002852
:104c5000db150028ec15412d160c0200f7c73415a2
:104c6000d032d332234268f109394141904041d0da
:104c7000043850000306023f03033142022807a014
:104c80000ad404395100fd28f7cf130644920428b2
:104c900065960028b9150028ca155631ff28e19fee
:104ca0004070060c023813068ea0810064e044f5c3
:104cb000f83c0029f4e2a4f2ed3c03f0023807a826
:104cc000d32fd02f02009bf0023c020007a12de061
:104cd000020098f10938102807d0033908f1043888
:104ce00031990728214808f10c39012807d00938e3
:104cf000072851411128c042010c033807285049a8
:104d00001190082807d005380628b148f728f7cfb2
:104d1000042807d005380628a148fb28f7cf302102
:104d2000291f0200311fff28f19f411b301f312135
:104d30000200022101210321532309380628d14012
:104d400001d112384198072821480b3f54230c38d1
:104d50005021f1910000f137741ff1900000f137fc
:104d600068f0023c2b1f0190511b81210728f19f05
:104d7000711b80210728914231c00728914abf2822
:104d8000f7cf322134210200082807d0073906283e
:104d9000b14001f00438082807a0020004280d984b
:104da000fe2bf43f402807d00d390ea4fecd012282
:104db00004390028bf15fa3f661b112100291be0aa
:104dc00002000728a64a0ea4fecd012204390028bd
:104dd000b115fa3f01283142b10941e0053a0838de
:104de0004bf00c38ea3d0728a142611be73f07283a
:104df000914271cf0728914af73f0728914281a23b
:104e00000728914ada3f0ea4fecd02220439002879
:104e10009115fa3f4618122100291be01bf00639b4
:104e2000581f0628e0400128004a020017d00a391e
:104e30003122063817a0419807282148033f072848
:104e4000a6480200124038f1093802d80739910308
:104e5000002941e2120e120d1248020047a07b28e1
:104e60000c9c10215215ff2b5e15b7cf020059f292
:104e700003396391083f69f20339e392043f79f201
:104e800003394396020004280d98fa2b143f02d4ec
:104e900007389103002901e21170062861480200d9
:104ea00088f10a3c012831410728814ab14603288c
:104eb000314fa1460f3f0728894a28f1063d31446a
:104ec0000328314f5140053f552851950328314f54
:104ed00081110328214f0200e3f3033cf190033fcb
:104ee00023e051920628614a0628434802007b21ac
:104ef000772141900000f137702175217a218ceee5
:104f00000415521f801f02004c1b001f47d003389e
:104f100027d009390ea4fecd002203390b15f73f27
:104f20001021020004280d9838f1fe2b2738fe2ba3
:104f30003c3fd23202180119210601d41a38121846
:104f4000162162f003392a1f2d3f12f2153822f282
:104f50002838fe2bef1568f0063c61900128114ab5
:104f6000fe2bb8153021280304280d98f92b373f64
:104f700001d114381421202807d00d3878f11239c6
:104f800004231038714401f002398144002911e0f2
:104f9000714c083f202807a0053f01d20538152194
:104fa00027a0d22f020011d00638102104280d9816
:104fb000fd2bf33ff2ce5200121bf43f0306030217
:104fc00002030302060203030105020201000101bc
:104fd00001010001000003020000050002070700b4
:104fe00002030101010000030202010f0008030592
:104ff0000502070406080606050304040103060269
:105000000201010901010201010201000000030285
:105010000201050502010103050001000203010070
:105020000000020101040100000304040203020461
:1050300074f5122447eafeebff8923e9c39411407b
:1050400003752310852321752200782112268f12e3
:105050001e8b74021223c57410652360268523827b
:10506000aa827410c39af52195e0f52278211226c0
:105070008f7c007d00ee2afae43ffb121e91740241
:105080001223c50255bf74f012244774fe1223e0a8
:1050900012267b8a848b850592a38a828b83059254
:1050a000e06006240260608065900650e4f005929e
:1050b000e0f5250592a3f075220024025002052296
:1050c000e4c522f521e4f523f524f526f527f52896
:1050d000900a027825122146900a06782512219816
:1050e00074087825122114782179251221ab900ab1
:1050f0000a78211221be90064c78211221f3ea246d
:1051000002f521e43b801e0592e0700280fe53927e
:10511000fe90065074fff0a3e41263e112788874e5
:1051200005f0e4f521f522782112268f9006511220
:105130006666790612690a12244574021223c5852f
:10514000328285338312268374021223c57f0802bc
:10515000251f74e812244774fe1223e012267b7484
:10516000fb1223af8a848b85752d00752e008584f4
:105170008285858378211221e4e5c7c0e07404129a
:105180002419d0e0f0900369e0f5c7858482858515
:1051900083a3a3a3a385822f858330e0fa8584822d
:1051a0008585838a29e4f52af52bf52c78291221a7
:1051b0004690f7e8125369f528740b7825122114ec
:1051c00078297925121efc50030253190592a3a3d6
:1051d000a3a3a3059290f7e4125369740b782512e8
:1051e000211478217925122133eafee5215403fcac
:1051f0007003025284740312241974fff0740212b3
:10520000241974fff0740112241912535e8c82aabf
:10521000827404125ae950057404c39cfe8e2575ed
:105220002600782512268fac84ad857402122419cd
:10523000e5822afae43583fb121e8b74021223c521
:105240007904ac32ad338521258522268523278537
:105250002428740278251220fbaa25ab2612143bc1
:105260008e25e5842ef584e43585f585e4f526f56f
:1052700027f52878217925122133852f82853083df
:10528000e0c39efeeec394044031eef9ac84ad85dc
:1052900085212585222685232785242874027825c3
:1052a0001220fbaa25ab2612143b8e25e52554fcc3
:1052b000f8e58428f584e43585f58574035efc60a3
:1052c0005e740312241974fff0740212241974ff1f
:1052d000f0740112241912535e8c2575260078256e
:1052e00012268fac84ad857402122435121e8b7485
:1052f000021223c5ac32ad338e25e4f527f52878ac
:10530000217925122133740278211220fbaa21abc6
:10531000227404f912143b8006752d80752e0174d9
:1053200004122419e0f5c7900650e52df0a3e52ef0
:1053300012663e740712665812268f1269001224f4
:105340004574021223c574051223c5853282853344
:105350008312268374021223c57f1002251f74ff57
:10536000f0853282853383f022e0f525e4f526f5d9
:10537000272274e812244774fe1223e012267b745d
:10538000c01223af8a828b838582848583850592b0
:10539000a3a3a3a3e0fee5c7ff900369e0f5c790d0
:1053a000f7e8e0f525e4f526f527f528740b7825d0
:1053b000122114eec3944140027e400592782912d6
:1053c00021e478257929121efc40030254ad852979
:1053d00021852a22852b23852c248e2de4f52ef57c
:1053e0002ff5307821792d12213378217925121e5d
:1053f000fc5005e529f404fe90f7e4e0f521e4f51e
:1054000022f523f524740b782112211478297921af
:10541000122133852921852a22852b23852c24746a
:105420000f78211220fbe521f5238523c7ac29e560
:105430002a4480fd8e82858225752600ec2ef5217a
:10544000e43df522c3e5259521e49522500c78250d
:1054500012268f74021224358049e525c39521f563
:1054600025e49522f526782512268f74021224351c
:10547000121e8b74021223c574012523f5c77821ef
:1054800012268f7c007d80c3e49521fae49522fbef
:105490007402122419e5822ef8e43583f9e82afa19
:1054a000e93bfb121e8b74021223c580027e008f23
:1054b000c7ee900650f0f525f582ac827d00240100
:1054c000125ca3900a0e78251221467408782512e2
:1054d0002114782179251221ab900a12782112210a
:1054e000be90064c78211221f3a832a93388218975
:1054f00022782112268f7a4c7b06790512690a12ce
:10550000244574021223c5744002534874f51224d2
:105510004774fe1223e012267beafeebff752300a0
:105520008e828f83a3e0fb74ff6b601e7c007d0086
:105530007a0479008e828f83e025e01263bb1269c2
:105540000f122445e970037523018e828f83a3a374
:10555000e0fb74ff6b60347c007d007a0379008e81
:10556000828f83e025e0fee433ff74562ef58474c9
:105570000a3ff585059212690f122445e97004d29d
:10558000f08002c2f0a2f0e4334223e523a2e0500f
:1055900006788079018004780079001255c4740e71
:1055a00012665812268f12690012244574021223c3
:1055b000c585328285338312268374021223c57f08
:1055c0000302251f900650e8f0a3e912795ae4f08f
:1055d000a32274ec12244774fe1223e012267b747b
:1055e000c01223af8a848b85858482858583a3a39b
:1055f000a3a3e0f8c39440500488218003752140a0
:10560000e5c7f52285848285858378251221e47497
:105610000f78251220fbe525f5c7852182ae828e05
:1056200023752400782312268f85848285858378cc
:10563000251221e4ac25e5264480fd7402122435b0
:10564000121e8b74021223c58522c785848285852c
:105650008312223290065012223eee900654f0241d
:10566000051268e3e0f529e4f52af52bf52c900afc
:10567000167829122146900a067829122198740872
:105680007829122114782579291221ab900a1a78e9
:10569000251221be90064c78251221f3a832a93399
:1056a00088238924782312268feefc7d007a4c7b98
:1056b00006790912690a12244574021223c574403e
:1056c0001223c58532828533831226837402122306
:1056d000c57f0c02251f74f612244774fe1223e0c6
:1056e00012267b74f91223af12169f7f007e00ac46
:1056f00032ad337401122435eef91219ffe9601c42
:105700007401122435853282853383e0f9121693b1
:10571000e960089006501263e8800e0f0eeec39405
:105720000840cc900650e4f0a3f0efa312770112ea
:10573000705b740712665812268f7c007d007a4ccd
:105740007b06790712690a12244574021223c57474
:1057500007800e12665812268f12690012244574b3
:10576000021223c585328285338312268374021286
:1057700023c57f0202251f74ec12244774fe1223f6
:10578000e012267be9fe8c258d26900650eaf0a3d8
:10579000ebf0eea3f0f529f582ac827d0024031234
:1057a0005cabf52af52bf52c900a1e7829122146c0
:1057b00074087829122114782179291221ab900ad2
:1057c0002278211221be90064c78211221f37825ef
:1057d00012268f7a4c7b06790712690a12244574c7
:1057e000020256c074f612244774fe1223e01226f9
:1057f0007b74fc1223afea14600614603b025895d8
:10580000900618e024026005146009800e9006508e
:105810007484800c900650748a80059006507485bc
:1058200012664512268f1269001224457402122353
:10583000c5900618e4f0805d7e00aa32ab33eef925
:105840001219f9e96048ee9006501263f79006517c
:10585000f07401122419e05401900652f0740312fe
:105860002419e09006531266617480f0a374041248
:105870006e1f1412665812268f7c007d007a4c7bb6
:1058800006790812690a12244574021223c50eee25
:10589000c3940840a5740402576174f2122447743b
:1058a000fe1223e012267b8922ebfeea600d24fb28
:1058b0006029147003025a90025aac900618e0fa5c
:1058c0007440125ae940030259f0e0f87440c3985a
:1058d000f5240259f290061874fef0ee7003025a95
:1058e000ac900618e0a2e75027eec3944140047f35
:1058f000408002eeff7cd87d05effb125ac1126991
:105900000f122445e9cec39efe7003025aac80d923
:10591000c39404504ce070160592900a261226a2f9
:105920007b017a007908121a4774041223c5900685
:1059300018e0f87404c398125af4500ae0f874049a
:10594000c398f52180028e21125adeab21125ac172
:1059500012690f122445e9cec39efe900618e02975
:10596000f0e0c3940450030258dbe0640470189024
:1059700005d8e060030258d5a3e0c3943d400890e9
:10598000061874ff0258da900618e0f89005d9e07e
:105990002404c398f8c39e5004882480028e24e80f
:1059a000601e900618125adeab24125ac112690ffb
:1059b000122445e9f8e524687006900618e029f0fd
:1059c000e524cec39efe900618e0fa9005d9e07952
:1059d0000024045001096a4960030258db9006184c
:1059e000e0f97ad87b05121b49900618e40258dad0
:1059f0008e24e524c39e5003025a8c8524257526e7
:105a000000782512268f74d82afae43405fb121e7a
:105a10008b74021223c5900618e02524f0e0c3948d
:105a2000045003025aac9005d9e0fc900618e0fa45
:105a3000ec2404f8e43400f9ea98e499406e740424
:105a40002cf524f97ad87b05121b49a82490061856
:105a5000e0c398f07c00900618e0f8ecc39850bdc5
:105a60008c82a882852425e82525fae43400fb747d
:105a7000d82af58274053bf583e0c0e074d828f598
:105a800082e43405f583d0e0f00c80ca7900801ef2
:105a9000e5c7f525900369e0f5c790ff25e0f974a7
:105aa000ff6960057a00121c4b8525c77901853294
:105ab0008285338312268374021223c57f06022552
:105ac0001f7a027900e52225e0f525e433f52674f6
:105ad000562525f584740a3526f585059222e0f8c9
