:020000040800F2
:1000000000800120E11C0008751C0008771C000816
:10001000791C00087B1C00087D1C00080000000003
:100020000000000000000000000000007F1C00082D
:10003000811C000800000000831C0008851C0008CB
:10004000311D0008311D0008311D0008311D000858
:10005000311D0008311D0008311D0008311D000848
:10006000311D0008311D0008311D0008311D000838
:10007000311D0008311D0008311D0008311D000828
:10008000311D0008311D0008311D0008000000006E
:10009000000000000000000000000000311D00080A
:1000A000311D0008311D0008311D0008311D0008F8
:1000B000311D0008311D0008311D0008311D0008E8
:1000C000311D0008311D0008311D0008311D0008D8
:1000D000311D0008311D0008311D0008000000001E
:1000E000311D0008311D0008311D0008000000000E
:1000F000000000000000000000000000311D0008AA
:1001000000000000311D0008311D0008311D0008ED
:1001100000000000000000000000000000000000DF
:10012000891C0008311D0008311D0008311D000820
:10013000311D000800000000000000000000000069
:10014000000000000000000000000000311D000859
:10015000311D0008311D0008311D0008311D000847
:10016000311D0008311D00080000000000000000E3
:10017000000000000000000000000000000000007F
:1001800000000000311D0008000000000000000019
:04019000311D000815
:1001940010B5054C237833B9044B13B10448AFF3BD
:1001A40000800123237010BD0C000020000000001B
:1001B4008C1D000808B5034B1BB103490348AFF37A
:1001C400008008BD00000000100000208C1D000805
:1001D40053B94AB9002908BF00281CBF4FF0FF31AA
:1001E4004FF0FF3000F07AB9ADF1080C6DE904CEA0
:1001F40000F006F8DDF804E0DDE9022304B07047FE
:100204002DE9F0478C460D460446089E002B51D13B
:100214008A4217466DD9B2FA82FEBEF1000F0BD0A6
:10022400CEF1200C01FA0EF520FA0CFC02FA0EF7BE
:100234004CEA050C00FA0EF44FEA174A250CBCFBF5
:10024400FAF81FFA87F90AFB18CC45EA0C4508FBB3
:1002540009F3AB420AD9ED1908F1FF3280F023818A
:10026400AB4240F22081A8F102083D44ED1AA4B249
:10027400B5FBFAF00AFB105544EA054400FB09F902
:10028400A14509D9E41900F1FF3380F00A81A145A1
:1002940040F2078102383C44A4EB090440EA0840D8
:1002A4000021002E61D024FA0EF400233460736020
:1002B400BDE8F0878B4207D9002E54D0002186E890
:1002C40021000846BDE8F087B3FA83F1002940F025
:1002D4008E80AB4202D3824200F2FA80841A65EB2C
:1002E40003050120AC46002E3FD086E81010BDE87F
:1002F400F08712B90127B7FBF2F7B7FA87FEBEF110
:10030400000F34D1EB1B3A0C1FFA87FC0121B3FB1D
:10031400F2F8250C02FB183345EA03450CFB08F3FD
:10032400AB4207D9ED1908F1FF3002D2AB4200F21B
:10033400D1808046ED1AA3B2B5FBF2F002FB105552
:1003440043EA05440CFB00FCA44507D9E41900F179
:10035400FF3302D2A44500F2B8801846A4EB0C0483
:1003640040EA08409DE731463046BDE8F087CEF1CB
:10037400200405FA0EF307FA0EF720FA04F83A0CF3
:1003840025FA04F448EA0308B4FBF2F14FEA1845ED
:1003940002FB11441FFA87FC45EA044501FB0CF3F8
:1003A400AB4200FA0EF409D9ED1901F1FF3080F0E7
:1003B4008A80AB4240F2878002393D44EB1A1FFA2F
:1003C40088F5B3FBF2F002FB103345EA034500FB6A
:1003D4000CF3AB4207D9ED1900F1FF386FD2AB42F1
:1003E4006DD902383D44EB1A40EA01418FE7C1F16F
:1003F400200722FA07F88B4005FA01F448EA0303C0
:1004040020FA07FE4FEA134CFD404EEA040EB5FBFA
:10041400FCF94FEA1E440CFB19551FFA83F844EA11
:10042400054509FB08F4AC4202FA01F200FA01FAAC
:1004340008D9ED1809F1FF3043D2AC4241D9A9F1F2
:1004440002091D442D1B1FFA8EFEB5FBFCF00CFBAC
:1004540010554EEA054400FB08F8A04507D9E418F6
:1004640000F1FF3529D2A04527D902381C4440EABF
:100474000940A4EB0804A0FB02894C45C6464D463E
:1004840015D312D056B1BAEB0E0364EB050404FA8B
:1004940007F7CB401F43CC40376074600021BDE8B0
:1004A400F0871846F8E69046E0E6C245EAD2B8EB93
:1004B400020E69EB03050138E4E72846D7E7404616
:1004C40091E78146BEE7014678E702383C4445E7B8
:1004D400084608E7A8F102083D442BE7704700BF2F
:1004E40038B50E4A0E4B054618784FF47A73B3FBB1
:1004F400F0F31068B0FBF3F000F09CFA044658B92E
:100504000F2D09D8024629464FF0FF3000F050FA6B
:10051400044B20461D6038BD012038BD0800002072
:10052400000000200400002008B50B4B1A6842F4B8
:1005340000721A601A6842F480621A601A6842F4FF
:1005440080721A60032000F021FA0020FFF7C8FF30
:1005540001F0DAFA002008BD003C0240034A044BD3
:1005640011681B780B441360704700BF28000020FB
:1005740000000020014B1868704700BF28000020CD
:1005840038B50446002800F09B80056C25B901F0BD
:10059400DBFA656484F83C50236CDB0600F18E8042
:1005A400236C23F4885323F0020343F002032364EF
:1005B400444B5A6822F440325A605A6861680A43CC
:1005C4005A60236821695A6822F480725A605A6812
:1005D40042EA01225A605A68A16822F040725A60C5
:1005E4005A680A435A609A68E16822F400629A6081
:1005F4009A680A439A603449A26A8A4252D0996836
:1006040021F07061996099680A439A609A68E16A76
:1006140022F040529A609A680A439A609A68217E4E
:1006240022F002029A609A6842EA41029A6094F8BF
:100634002020002A3ED05A68616A42F400625A605F
:100644005A6822F460425A605A68013942EA4132D7
:100654005A60DA6AE16922F47002DA62DA6A01390C
:1006640042EA0152DA629A6894F8301022F4007275
:100674009A609A6842EA41229A609A68616922F40F
:1006840080629A609A68002042EA81229A606064DB
:10069400236C23F0030343F001032364002384F851
:1006A4003C3038BD9A6822F070629A609A6822F0F1
:1006B4004052B2E75A6822F40062C9E70120EDE72C
:1006C400012038BD002301400100000F37B5134657
:1006D4000022019290F83C20012A044665D0056866
:1006E400012280F83C20AA68D20705D5AA68D00761
:1006F40015D4002003B030BDAA6842F00102AA60FC
:100704002B4A10682B4AB0FBF2F000EB400001903A
:10071400019A002AEAD0019A013A0192F8E7206C82
:1007240020F4E06020F0010040F4807020646A68E6
:10073400520541BF206C20F4405040F480502064A6
:10074400226CA06B12F480521CBF626C22F0060271
:100754006264002284F83C20174AC263174A026488
:10076400174AC2646FF022022A606A6842F080620B
:100774006A60AA6842F48072AA600A4605F14C01D4
:1007840000F002FA0F4B5B6813F01F0F236808D1C7
:10079400986810F04050ACD19A6842F080429A6058
:1007A400A8E7094A9342A4D1F2E70220A2E700BFD6
:1007B4000800002040420F00F7070008D507000892
:1007C400E107000800230140002001407047704702
:1007D40008B5806BFFF7FBFF08BD7047806B08B559
:1007E40040230364436C43F004034364FFF7F5FFC1
:1007F40008BD836B1A6C12F0500F10B51A6C23D11C
:1008040042F400721A641A68916811F0405F17D1BB
:10081400197EA9B9D16A11F4700F02D09168480504
:100824000ED4516821F0200151601A6C22F48072B8
:100834001A641A6CD1045EBF1A6C42F001021A6485
:100844001846FFF7C3FF10BDD20603D51846FFF7BD
:10085400C4FF10BD9B6BBDE81040DB6C1847000063
:10086400F7B50023019390F83C30012B00F083800E
:100874000D6804688A680123092D80F83C30AEB203
:100884002AD906EB4603E7681E3B4FF0070E0EFA23
:1008940003FE27EA0E07E760E76802FA03F33B4327
:1008A400E3604A68062A4FEA820325D81344676B3B
:1008B400591F1F238B4027EA03036363626B06FA05
:1008C40001F1114361632D4B9C4234D0002380F825
:1008D4003C30184603B0F0BD276905EB45034FF0E3
:1008E400070E0EFA03FE27EA0E072761276902FAAC
:1008F40003F33B432361D4E70C2A0ED81344216B42
:10090400A3F123021F23934021EA03032363236BF0
:1009140006FA02F21A432263D5E71344E16A413B23
:100924001F229A4021EA0202E262E26A06FA03F115
:100934001143E162C7E7122D04D1114A536843F40D
:1009440080035360A5F11003012BBFD80C4A5368F0
:10095400102D43F400035360B8D10A4B0A4A1B68B4
:10096400B3FBF2F20A2353430193019B002BADD056
:10097400019B013BF8E70220ACE700BF00200140E7
:10098400002301400800002040420F00074AD368BA
:1009940023F4E0631B041B0C43F0BF63000243F425
:1009A400003300F4E0600343D360704700ED00E0DF
:1009B400174B30B5DC68C4F30224C4F10703251DCA
:1009C400042B28BF0423062D4FF0010505FA03F379
:1009D40003F1FF338CBF033C00241940A14005FA06
:1009E40004F4013C2240002842EA01024FEA0212C8
:1009F400ADBF00F1604000F00F00064B00F5614010
:100A0400B5BFD2B2D2B21A5480F8002330BD00BFB1
:100A140000ED00E014ED00E0002808DB42090123AA
:100A240000F01F0003FA00F0014B43F82200704766
:100A340000E100E00138B0F1807F0AD2064B074A9A
:100A44005860F02182F823100020072298601A6071
:100A540070470120704700BF10E000E000ED00E0A7
:100A64000368DAB223F47F7323F003031821103AE6
:100A7400B2FBF1F20449032A88BF0433895C83651D
:100A8400C165806D704700BFA41D000870B50446A1
:100A9400FFF770FD0546002C71D0002384F8343034
:100AA4002268022384F83530136823F001031360AD
:100AB40021680B68D8073CD40B68324D6268A06982
:100AC4001D40A3681343E268134322691343626918
:100AD4001343E26903431343226A1343626A042AF9
:100AE40043EA050301BF266BE56A35432B430B60DC
:100AF4004B69042A23F0070343EA02030BD1A26AD9
:100B0400E56A13433DB1F8B9012A2DD001D3022A75
:100B140001D1EA012BD44B612046FFF7A1FFE26D1E
:100B24003F239340836000200123606584F83530BF
:100B340070BDFFF71FFD401B0528B9D9202363654D
:100B4400032084F8350070BDB0F5005F13D1032A8B
:100B5400E1D801A050F822F0730B0008170B00082D
:100B6400730B00086D0B0008B5F1C07FD3D140238F
:100B740063650120E5E7022AF9D9032AC8E70120C1
:100B840070BD00BF3F8010F070B590F83440012C68
:100B940036D0012480F8344090F83540866D012C1D
:100BA4004FF000054FF0020428D180F83540046866
:100BB4004565256825F48025256063608368402B9E
:100BC4000EBFA260A160E260C26D08BFE1603F2376
:100BD4009340B360236843F016032360636943F0D2
:100BE40080036361036C1BB1236843F00803236033
:100BF400236843F001032360002070BD80F8345063
:100C0400022070BDF7B5002301935A4B856D1F6810
:100C1400C36D2E6808229A40164204460CD001681F
:100C24000868400708D5086820F004000860AA6036
:100C3400626D42F00102626501229A40164208D0B8
:100C440021684969090641BFAA60626D42F0020247
:100C5400626504229A40164208D021680968880710
:100C640041BFAA60626D42F00402626510229A409C
:100C7400164210D02368196809070CD5AA601A68AF
:100C8400500335D51B68190301D4236C00E0A36C11
:100C94000BB120469847E16D20228A40164238D095
:100CA40023681868C60634D5AA6094F83520052A46
:100CB4001A6825D122F016021A605A6922F08002BD
:100CC4005A61226C0AB9A26C1AB11A6822F008029D
:100CD4001A603F238B40AB60002384F83430012337
:100CE40084F83530236D0BB12046984703B0F0BD2E
:100CF4001A68D2055EBF1A6822F008021A60C4E7B7
:100D0400500328D51B68190332D4636C0BB12046F9
:100D14009847636D002BE9D0636DDA0719D5052375
:100D2400226884F83530136823F0010313604FF40C
:100D34001653B7FBF3F7019B01339F42019302D390
:100D44001368DB07F7D4002384F83430012384F8D4
:100D54003530E36CC7E71A6812F4807208D1196859
:100D640021F010011960012384F8342084F835300F
:100D7400E36BCBE7080000202DE9F04F85B00B684A
:100D8400DFF89C81644A01934FF001090023019C20
:100D940009FA03F707EA0406B74240F0AD804C684D
:100DA40024F0100ABAF1020F16D14FEAD30C00EB6B
:100DB4008C0C03F0070BDCF820504FEA8B0B4FF040
:100DC4000F0E0EFA0BFE25EA0E0E0D6905FA0BF551
:100DD40045EA0E05CCF820504FEA430C0325D0F821
:100DE40000B005FA0CF5ED4304F0030E0BEA050B15
:100DF4000EFA0CFE0AF1FF3A4EEA0B0EBAF1010F9D
:100E04000095C0F800E015D8D0F808E005EA0E0E09
:100E1400CD6805FA0CFA4AEA0E0EC0F808E0D0F8DC
:100E240004E02EEA0707C4F3001E0EFA03FE4EEA9E
:100E340007074760C768009D3D408F6807FA0CF7B5
:100E44003D43C560E50057D54FF0000BCDF80CB01D
:100E5400D8F84470314D47F48047C8F84470D8F846
:100E6400447007F480470397039F23F0030707F1B7
:100E7400804707F59C3703F0030CD7F808A04FEA26
:100E84008C0C4FF00F0E0EFA0CFEA8422AEA0E0E3E
:100E940039D005F58065A84237D005F58065A842AC
:100EA40035D005F58065A84233D005F58065A842A4
:100EB40014BF0725042505FA0CF545EA0E05BD60A7
:100EC4001568F74314F4803F0CBF3D40354315606B
:100ED400556814F4003F0CBF3D4035435560956898
:100EE40014F4801F0CBF3D4035439560D568A402BF
:100EF40054BF3D403543D5600133102B7FF447AFD9
:100F040005B0BDE8F08F5D46D5E70125D3E702259E
:100F1400D1E70325CFE700BF003C014000000240B9
:100F2400003802400AB1816170470904FBE7000000
:100F34002DE9F341044618B9012002B0BDE8F0815F
:100F44000368DD0710D42368980758D423681A0768
:100F540000F19A8023685B0700F1B880A269002A37
:100F640040F019810020E8E7A64B9A6802F00C02D1
:100F7400042A07D09A6802F00C02082A0AD15B6896
:100F8400590207D59F4B1B689A03DCD56368002B75
:100F9400D9D1D1E763689B4DB3F5803F11D12B685C
:100FA40043F480332B60FFF7E5FA964D06462B6831
:100FB4009B03C8D4FFF7DEFA801B6428F7D903200B
:100FC400BBE7B3F5A02F04D12B6843F480232B6037
:100FD400E5E72A6822F480322A602A6822F4802213
:100FE4002A60002BDFD1FFF7C5FA06462B689F0362
:100FF400A9D5FFF7BFFA801B6428F7D9DFE7814B37
:101004009A6812F00C0F07D09A6802F00C02082AB2
:1010140011D15B685E020ED47A4B1A68950702D52B
:10102400E268012A88D11A68216922F0F80242EAAA
:10103400C1021A608AE7E268734BB2B101221A60F6
:10104400FFF798FA6F4D06462B68980707D52B686B
:10105400226923F0F80343EAC2032B6076E7FFF723
:1010640089FA801B0228EFD9A9E71A60FFF782FAF0
:10107400644D06462B6899077FF568AFFFF77AFA47
:10108400801B0228F6D99AE76269604B7AB1012283
:101094001A60FFF76FFA5B4D06466B6F9F073FF5CB
:1010A40059AFFFF767FA801B0228F6D987E71A6061
:1010B400FFF760FA534D06466B6F98077FF54AAF0A
:1010C400FFF758FA801B0228F6D978E74D4B1A6CC3
:1010D40012F0805228D101921A6C42F080521A64A4
:1010E4001B6C03F080530193019B0126484D2B6830
:1010F400D9051BD5A368434D012B27D12B6F43F092
:1011040001032B67FFF736FA3E4D074641F2883854
:101114002B6F9B0739D5002E3FF420AF394A136C4F
:1011240023F08053136419E70026DFE72B6843F4A8
:1011340080732B60FFF71EFA07462B68DA05D9D4B3
:10114400FFF718FAC01B0228F7D938E7052B04D19A
:101154002B6F43F004032B67D0E72A6F22F00102C0
:101164002A672A6F22F004022A67002BCAD1FFF7EC
:1011740001FA41F2883807462B6F9807CBD5FFF761
:10118400F9F9C01B4045F7D919E7FFF7F3F9C01B7C
:101194004045BDD913E71B4DAB6803F00C03082B86
:1011A4003FF4CAAE1B4E0023022A336034D1FFF74A
:1011B400E1F907462B6899011ED4226AE3691343B7
:1011C400626A43EA8213E26A43EA0263A26A0D4C4A
:1011D4005208013A43EA02436B6001233360FFF78C
:1011E400C9F9054623689A013FF5BCAEFFF7C2F979
:1011F400401B0228F6D9E2E6FFF7BCF9C01B02281F
:10120400D8D9DCE60038024000004742800E47424D
:101214000070004060004742FFF7ACF904462B68B9
:101224009B017FF59FAEFFF7A5F9001B0228F6D9B5
:10123400C5E600BF134908B58B6803F00C03042B03
:1012440003D0082B03D0104808BD104808BD4A68D5
:101254004B68496813F4800314BF0C480A48C1F36F
:10126400881118BF002302F03F02A1FB0001FEF722
:10127400AFFF044B5B68C3F3014301335B00B0FB76
:10128400F3F008BD003802400024F40000127A0094
:101294002DE9F0410D46044610B90120BDE8F08166
:1012A400444B1A6802F00F028A4228D321688F0740
:1012B4002DD4C80740D43F4B1A6802F00F02954260
:1012C40066D3226851076CD4130707D53A4A2169BB
:1012D400936823F4604343EAC1039360FFF7AAFFD2
:1012E400354B364A9B68C3F30313D35CD840344B65
:1012F40018600020FFF7F4F80020BDE8F081CAB2BE
:101304001A701B6803F00F039942C6D1CEE72A4B2B
:1013140011F0040F1EBF9A6842F4E0529A600E075F
:1013240042BF9A6842F460429A609A68A06822F0C8
:10133400F00202439A60BCE762681F4B012A1DD188
:101344001B6813F4003FA8D01B4EB36823F00303BB
:101354001343B360FFF70EF941F288380746B368C8
:10136400626803F00C03B3EB820FA4D0FFF702F919
:10137400C01B4045F3D90320BDE8F081911E01292B
:101384001B6802D813F0007FDDE713F0020FDAE7E1
:10139400EAB21A701B6803F00F039D427FF47DAF1D
:1013A4008FE70549E0688B6823F4E05303438B60BF
:1013B4008AE700BF003C024000380240AC1D000830
:1013C40008000020036A23F001030362036A70B576
:1013D400446882690D6822F073022A438D6823F001
:1013E40002032B430A4DA8420BD1CD688E6923F02A
:1013F40008032B434D6924F44074354323F004035C
:101404002C43446082614A684263036270BD00BF3A
:1014140000000140036A23F480730362036A70B519
:101424004468C2690D6822F073022A438D6823F46C
:10143400007343EA05230B4DA8420DD1CD688E6994
:1014440023F4006343EA05234D6924F440543543EF
:1014540023F4806344EA05144460C2614A68C263A9
:10146400036270BD00000140036A23F480530362E9
:10147400036A30B54468C2690D6822F4E64242EA60
:1014840005228D6823F4005343EA0533064DA84230
:1014940002BF4D6924F4804444EA85144460C26167
:1014A4004A680264036230BD0000014070470000D6
:1014B400244A036890420ED0B0F1804F0BD0A2F5BD
:1014C4007C42904207D002F58062904203D002F53C
:1014D4008062904215D14A6823F070031343194A7D
:1014E400904219D0B0F1804F16D0A2F57C429042C0
:1014F40012D002F5806290420ED002F580629042D2
:101504000AD0114A904207D002F58062904203D07B
:1015140002F58062904203D1CA6823F440731343F6
:101524004A6923F08003134303608B68C3620B682A
:101534008362044B984204BF0B6903630123436134
:10154400704700BF000001400040014010B5044650
:10155400A0B190F83D3003F0FF021BB980F83C20A5
:1015640000F044FB022384F83D302068211DFFF77E
:101574009FFF012384F83D30002010BD012010BDE1
:1015840010B50446A0B190F83D3003F0FF021BB93A
:1015940080F83C20FFF78AFF022384F83D3020685E
:1015A400211DFFF785FF012384F83D30002010BD85
:1015B400012010BD036A23F010030362036A70B5AF
:1015C400446882690D6822F4E64242EA05228D6885
:1015D40023F0200343EA05130B4DA8420DD1CD6837
:1015E4008E6923F0800343EA05134D6924F44064B3
:1015F400354323F0400344EA8504446082614A6829
:101604008263036270BD00BF0000014038B590F8EA
:101614003C30012B04464FF0020025D0012384F80E
:101624003C3084F83D000C2A18D8DFE802F0071794
:1016340017171E1717172F17171740002068FFF7E3
:10164400C1FE236809699A6942F008029A619A699D
:1016540022F004029A619A690A439A6101230020E4
:1016640084F83D3084F83C0038BD2068FFF7A2FFC1
:10167400236809699A6942F400629A619A6922F4BA
:1016840080629A619A6942EA0122E6E72068FFF7DC
:10169400C1FE23680969DA6942F00802DA61DA698D
:1016A40022F00402DA61DA690A43DA61D6E72068D3
:1016B400FFF7DAFE23680969DA6942F40062DA6145
:1016C400DA6922F48062DA61DA6942EA0122ECE73B
:1016D40010B584680A4324F47F4442EA0323234375
:1016E400836010BD90F83C30012B70B504464FF078
:1016F400020019D084F83D002068012384F83C30AE
:10170400836823F47F4323F0770383600B68402BC3
:1017140065D015D8102B0CD007D853B10123002065
:1017240084F83D3084F83C0070BD202B01D0302B70
:10173400F4D1826843F0070322F0700213431AE0E5
:10174400602B34D019D8502BE8D14A68CE68016A8E
:10175400056A25F001050562836921F00A0123F079
:10176400F00343EA06130A4383610262836823F0A9
:10177400700343F057038360D0E7702B0CD0B3F5AC
:10178400005FCBD1CB684A688968FFF7A1FF226864
:10179400936843F4804308E0CB684A688968FFF79C
:1017A40097FF2268936843F077039360B6E74D6828
:1017B400CE68016A21F0100101628269036A22F491
:1017C400704223F0A00343EA051342EA0632826121
:1017D4000362836823F0700343F06703CBE74A682E
:1017E400CE68016A056A25F001050562836921F066
:1017F4000A0123F0F00343EA06130A4383610262F9
:10180400836823F0700343F04703B4E7036A01F0ED
:101814001F0110B501248C4023EA04030362036A08
:101824008A401A43026210BD10B5044601220068C2
:10183400FFF7ECFF2368094A934202BF5A6C42F453
:1018440000425A649A6802F00702062A1EBF1A6808
:1018540042F001021A60002010BD00BF00000140E8
:1018640090F83C30012B30B54FF0020314D00468DB
:1018740080F83D306268A3680D68496822F0700200
:1018840023F080030B432A436260A360012380F8A2
:101894003D30002380F83C30184630BD30B595B05B
:1018A4003022002108A800F067FA0021142203A8BE
:1018B40000F062FA00241C4B01941A6C42F080522E
:1018C4001A641B6C194A03F080530193019B029420
:1018D400136823F4404343F40043136013680F94E4
:1018E40003F440430293029B01230B9310230C93B4
:1018F40010934FF4A873119304230225129308A89C
:101904000723139308950E95FFF712FB0F230393F8
:1019140029464FF4805303A804950594069307942D
:10192400FFF7B6FC15B030BD00380240007000402F
:1019340080B592B00024694DFEF7F6FDFFF7AEFFC7
:10194400142200210BA800F017FA01942B6B6448B1
:1019540043F004032B632B6B03F004030193019BFB
:1019640002942B6B43F080032B632B6B03F08003F7
:101974000293029B03942B6B43F001032B632B6BA9
:1019840003F001030393039B04942B6B43F00203C2
:101994002B632B6B03F00203224604932021049B48
:1019A400FFF7C0FA4FF400530B930BA94D4B4E486D
:1019B4000C930D94FFF7E0F90C2307260B930BA966
:1019C400022347480C9301270F960D940E94FFF7BA
:1019D400D3F920230BA942480B930C970D940E9432
:1019E400FFF7CAF900942B6B43F480032B632B6B32
:1019F4003E4D03F480032246214600933820009B89
:101A0400FEF7D6FF3820FFF707F8214610220BA86F
:101A140000F0B2F9364AAC604FF4803385E80C002C
:101A24002846344BAB622F612F7685F82040EC6258
:101A3400EC60EF6185F830706F61FEF7A1FD0BA9D2
:101A440028460D960B940C97FEF70AFF10222146A8
:101A540007A800F091F91C2221460BA8264E0594F4
:101A6400069400F089F92549B460542386E80A00F5
:101A7400304640F6FF73F3603461B461FFF766FDEE
:101A84004FF4805307A930460793FFF72BFE3046E7
:101A9400FFF776FD05A9304605940694FFF7E0FEAE
:101AA400602322460BA90B9330464FF4FA630C9340
:101AB4000D940F94FFF7AAFD304600F0AFF82146CD
:101AC4003046FFF7B1FE0E493A462846FEF7FEFDC2
:101AD40033680B490A685A63FCE700BF00380240C8
:101AE4000000024000002110000802406C000020A9
:101AF400002001400100000F2C00002000040040E1
:101B0400140100207047000007B50E4B002100911E
:101B14005A6C42F480425A645A6C02F48042009235
:101B2400009A01911A6C42F080521A641B6C03F003
:101B3400805301930720019BFEF728FF03B05DF853
:101B440004FB00BF0038024070B5064688B014227A
:101B5400002103A800F010F93268204B9A423AD1D0
:101B6400002503F58C3301955A6C1D481D4C42F435
:101B740080725A645A6C02F480720192019A02953E
:101B84001A6B42F001021A631B6B03F00103029308
:101B9400029B0123039303A903230493FFF7ECF8A7
:101BA400114BA56084E828004FF4806323614FF44F
:101BB400805363614FF48043A36120464FF48073E4
:101BC400E560E36125626562FEF760FF08B1FFF737
:101BD40099FFB463A66308B070BD00BF0020014044
:101BE40000000240B4000020106402400268094B67
:101BF4009A4282B00BD100230193074B1A6C42F036
:101C040002021A641B6C03F002030193019B02B0ED
:101C1400704700BF000400400038024010B504467D
:101C240086B01422002101A800F0A6F822680D4B0A
:101C34009A4214D1002300930B4B0C481A6B42F0C8
:101C440001021A631B6B03F001030093009B402302
:101C5400019301A9022302930593FFF78DF806B0BF
:101C640010BD00BF000400400038024000000240E4
:101C74007047FEE7FEE7FEE7FEE7704770477047F0
:101C8400FEF76CBC0148FEF7BDBF00BFB4000020E6
:101C94000F49D1F8883043F47003C1F888300D4BF4
:101CA4001A68002042F001021A6098601A6822F053
:101CB400847222F480321A60074A5A601A6822F445
:101CC40080221A60D8604FF000638B60704700BFB9
:101CD40000ED00E00038024010300024DFF834D07A
:101CE400002103E00C4B5B58435004310B480C4B70
:101CF40042189A42F6D30B4A02E0002342F8043B0E
:101D0400094B9A42F9D3FFF7C3FF00F011F8FFF72C
:101D14000FFE704700800120CC1D00080000002049
:101D24000C0000200C00002018010020FEE7000039
:101D340070B50D4E0D4CA41BA4100025A54209D16D
:101D44000B4E0C4C00F020F8A41BA4100025A54257
:101D540005D170BD56F8253098470135EEE756F8A1
:101D6400253098470135F2E7C41D0008C41D00085A
:101D7400C41D0008C81D000802440346934200D154
:101D8400704703F8011BF9E7F8B500BFF8BC08BCBD
:101D94009E467047F8B500BFF8BC08BC9E46704725
:101DA40000061016000610160000000000000000D7
:081DB4000102030406070809FF
:081DBC0048E4FF7F0100000074
:041DC400B901000859
:041DC8009501000879
:0C1DCC0001000000100000000024F400E2
:0400000508001CE1F2
:00000001FF
