:020000040800F2
:1000000000800120CD240008552400085724000852
:10001000592400085B2400085D240008000000004B
:100020000000000000000000000000005F24000845
:100030006124000800000000632400086524000813
:100040001D2500081D2500081D2500081D25000888
:100050001D2500081D2500081D2500081D25000878
:100060001D2500081D2500081D2500081D25000868
:100070001D2500081D2500081D2500081D25000858
:10008000692400081D2500081D2500080000000047
:100090000000000000000000000000001D25000816
:1000A0001D2500081D2500081D2500081D25000828
:1000B0001D2500081D2500081D2500081D25000818
:1000C0001D2500081D2500081D2500081D25000808
:1000D0001D2500081D2500081D2500080000000042
:1000E0001D2500081D2500081D2500080000000032
:1000F0000000000000000000000000001D250008B6
:10010000000000001D2500081D2500081D25000811
:1001100000000000000000000000000000000000DF
:10012000752400081D2500081D2500081D25000850
:100130001D25000800000000000000000000000075
:100140000000000000000000000000001D25000865
:100150001D2500081D2500081D2500081D25000877
:100160001D2500081D2500080000000000000000FB
:10017000000000000000000000000000000000007F
:10018000000000001D250008000000000000000025
:040190001D25000821
:1001A00010B5054C237833B9044B13B10448AFF3B1
:1001B00000800123237010BD7000002000000000AB
:1001C000F02D000808B5034B1BB103490348AFF3FA
:1001D000008008BD0000000074000020F02D000821
:1001E00001F0FF01102A2BDB10F0070F08D010F8E8
:1001F000013B013A8B422DD010F0070F42B3F6D1EC
:10020000F0B441EA012141EA014122F007047FF004
:1002100000070023F0E80256083C85EA010586EA5B
:10022000010685FA47F5A3FA87F586FA47F6A5FA97
:1002300087F68EB9EED1F0BC01F0FF0102F00702A3
:1002400032B110F8013B013A83EA010313B1F8D14E
:100250000020704701387047002D06BF354603382F
:10026000073815F0010F07D1013015F4807F02BF68
:10027000013015F4C03F0130F0BC0138704700BFB9
:1002800053B94AB9002908BF00281CBF4FF0FF31FD
:100290004FF0FF3000F07AB9ADF1080C6DE904CEF3
:1002A00000F006F8DDF804E0DDE9022304B0704751
:1002B0002DE9F0478C460D460446089E002B51D18F
:1002C0008A4217466DD9B2FA82FEBEF1000F0BD0FA
:1002D000CEF1200C01FA0EF520FA0CFC02FA0EF712
:1002E0004CEA050C00FA0EF44FEA174A250CBCFB49
:1002F000FAF81FFA87F90AFB18CC45EA0C4508FB07
:1003000009F3AB420AD9ED1908F1FF3280F02381DD
:10031000AB4240F22081A8F102083D44ED1AA4B29C
:10032000B5FBFAF00AFB105544EA054400FB09F955
:10033000A14509D9E41900F1FF3380F00A81A145F4
:1003400040F2078102383C44A4EB090440EA08402B
:100350000021002E61D024FA0EF400233460736073
:10036000BDE8F0878B4207D9002E54D0002186E8E3
:1003700021000846BDE8F087B3FA83F1002940F078
:100380008E80AB4202D3824200F2FA80841A65EB7F
:1003900003050120AC46002E3FD086E81010BDE8D2
:1003A000F08712B90127B7FBF2F7B7FA87FEBEF163
:1003B000000F34D1EB1B3A0C1FFA87FC0121B3FB71
:1003C000F2F8250C02FB183345EA03450CFB08F351
:1003D000AB4207D9ED1908F1FF3002D2AB4200F26F
:1003E000D1808046ED1AA3B2B5FBF2F002FB1055A6
:1003F00043EA05440CFB00FCA44507D9E41900F1CD
:10040000FF3302D2A44500F2B8801846A4EB0C04D6
:1004100040EA08409DE731463046BDE8F087CEF11E
:10042000200405FA0EF307FA0EF720FA04F83A0C46
:1004300025FA04F448EA0308B4FBF2F14FEA184540
:1004400002FB11441FFA87FC45EA044501FB0CF34B
:10045000AB4200FA0EF409D9ED1901F1FF3080F03A
:100460008A80AB4240F2878002393D44EB1A1FFA82
:1004700088F5B3FBF2F002FB103345EA034500FBBD
:100480000CF3AB4207D9ED1900F1FF386FD2AB4244
:100490006DD902383D44EB1A40EA01418FE7C1F1C2
:1004A000200722FA07F88B4005FA01F448EA030313
:1004B00020FA07FE4FEA134CFD404EEA040EB5FB4E
:1004C000FCF94FEA1E440CFB19551FFA83F844EA65
:1004D000054509FB08F4AC4202FA01F200FA01FA00
:1004E00008D9ED1809F1FF3043D2AC4241D9A9F146
:1004F00002091D442D1B1FFA8EFEB5FBFCF00CFB00
:1005000010554EEA054400FB08F8A04507D9E41849
:1005100000F1FF3529D2A04527D902381C4440EA12
:100520000940A4EB0804A0FB02894C45C6464D4691
:1005300015D312D056B1BAEB0E0364EB050404FADE
:1005400007F7CB401F43CC40376074600021BDE803
:10055000F0871846F8E69046E0E6C245EAD2B8EBE6
:10056000020E69EB03050138E4E72846D7E7404669
:1005700091E78146BEE7014678E702383C4445E70B
:10058000084608E7A8F102083D442BE7704700BF82
:1005900038B50E4A0E4B054618784FF47A73B3FB04
:1005A000F0F31068B0FBF3F000F092FA044658B98B
:1005B0000F2D09D8024629464FF0FF3000F048FAC7
:1005C000044B20461D6038BD012038BD08000020C6
:1005D000000000200400002008B50B4B1A6842F40C
:1005E00000721A601A6842F480621A601A6842F453
:1005F00080721A60032000F019FA0020FFF7C8FF8C
:1006000001F020FE002008BD003C0240034A044BDC
:1006100011681B780B441360704700BF98000020DE
:1006200000000020014B1868704700BF98000020B0
:1006300010B50446002800F09980036C23B9436488
:1006400080F83C3001F01EFE236CDB0600F18C804C
:10065000236C23F4885323F0020343F00203236442
:10066000434B5A6822F440325A605A6861680A4320
:100670005A60236821695A6822F480725A605A6865
:1006800042EA01225A605A68A16822F040725A6018
:100690005A680A435A609A68E16822F400629A60D4
:1006A0009A680A439A603349A26A8A4250D099688C
:1006B00021F07061996099680A439A609A68E16ACA
:1006C00022F040529A609A680A439A609A68A16937
:1006D00022F002029A609A6842EA41029A60226A13
:1006E000002A3DD05A68616A42F400625A605A6832
:1006F00022F460425A605A68013942EA41325A6033
:10070000DA6AE16922F47002DA62DA6A013942EAED
:100710000152DA629A68216B22F400729A609A6838
:1007200042EA41229A609A68616922F480629A6082
:100730009A68002042EA81229A606064236C23F068
:10074000030343F001032364002384F83C3010BD0D
:100750009A6822F070629A609A6822F04052B4E778
:100760005A6822F40062CAE70120EDE7012010BDBB
:10077000002301400100000F37B51346002201920B
:1007800090F83C20012A044665D00568012280F8D3
:100790003C20AA68D20705D5AA68D00715D4002046
:1007A00003B030BDAA6842F00102AA602B4A10686B
:1007B0002B4AB0FBF2F000EB40000190019A002AB6
:1007C000EAD0019A013A0192F8E7206C20F4E06047
:1007D00020F0010040F4807020646A68520541BF37
:1007E000206C20F4405040F480502064226CA06BB8
:1007F00012F480521CBF626C22F006026264002276
:1008000084F83C20174AC263174A0264174AC2643C
:100810006FF022022A606A6842F080626A60AA6809
:1008200042F48072AA600A4605F14C0100F0FAF920
:100830000F4B5B6813F01F0F236808D1986810F006
:100840004050ACD19A6842F080429A60A8E7094AC9
:100850009342A4D1F2E70220A2E700BF08000020E3
:1008600040420F007B080008DD080008E908000886
:1008700000230140002001407047836B1A6C12F086
:10088000500F10B524D11A6C42F400721A641A6821
:10089000916811F0405F17D19969A9B9D16A11F433
:1008A000700F02D0916849050ED4516821F02001E3
:1008B00051601A6C22F480721A641A6CD2045EBF02
:1008C0001A6C42F001021A641846FFF7D5FF10BDFA
:1008D0009B6BBDE81040DB6C1847704708B5806B18
:1008E000FFF7FBFF08BD7047806B08B5402303642A
:1008F000436C43F004034364FFF7F5FF08BD0000B9
:10090000F7B50023019390F83C30012B00F0838071
:100910000D6804688A680123092D80F83C30AEB266
:100920002AD906EB4603E7681E3B4FF0070E0EFA86
:1009300003FE27EA0E07E760E76802FA03F33B438A
:10094000E3604A68062A4FEA820325D81344676B9E
:10095000591F1F238B4027EA03036363626B06FA68
:1009600001F1114361632D4B9C4234D0002380F888
:100970003C30184603B0F0BD276905EB45034FF046
:10098000070E0EFA03FE27EA0E072761276902FA0F
:1009900003F33B432361D4E70C2A0ED81344216BA5
:1009A000A3F123021F23934021EA03032363236B54
:1009B00006FA02F21A432263D5E71344E16A413B87
:1009C0001F229A4021EA0202E262E26A06FA03F179
:1009D0001143E162C7E7122D04D1114A536843F471
:1009E00080035360A5F11003012BBFD80C4A536854
:1009F000102D43F400035360B8D10A4B0A4A1B6818
:100A0000B3FBF2F20A2353430193019B002BADD0B9
:100A1000019B013BF8E70220ACE700BF002001404A
:100A2000002301400800002040420F00074AD3681D
:100A300023F4E0631B041B0C43F0BF63000243F488
:100A4000003300F4E0600343D360704700ED00E042
:100A5000174B30B5DC68C4F30224C4F10703251D2D
:100A6000042B28BF0423062D4FF0010505FA03F3DC
:100A700003F1FF338CBF033C00241940A14005FA69
:100A800004F4013C2240002842EA01024FEA02122B
:100A9000AFBF00F1604000F00F00064BD2B2A5BF1F
:100AA00000F56140D2B21A5480F8002330BD00BF77
:100AB00000ED00E014ED00E04209012300F01F000A
:100AC00003FA00F0014B43F82200704700E100E018
:100AD0000138B0F1807F0AD2064B074A5860F021F6
:100AE00082F823100020072298601A6070470120C6
:100AF000704700BF10E000E000ED00E00368DAB2EC
:100B000023F47F7323F003031821103AB2FBF1F2B0
:100B10000449032A88BF0433895C8365C165806DFD
:100B2000704700BF082E000870B50446FFF77AFD35
:100B30000546002C71D0002384F83430226802234B
:100B400084F83530136823F00103136021680B68C3
:100B5000D8073CD40B68324D6268A0691D40A36879
:100B60001343E26813432269134362691343E26942
:100B700003431343226A1343626A042A43EA0503C8
:100B800001BF266BE56A35432B430B604B69042A92
:100B900023F0070343EA02030BD1A26AE56A134379
:100BA0003DB1F8B9012A2DD001D3022A01D1EA01C1
:100BB0002BD44B612046FFF7A1FFE26D3F2393400A
:100BC000836000200123606584F8353070BDFFF735
:100BD00029FD401B0528B9D920236365032084F82B
:100BE000350070BDB0F5005F13D1032AE1D801A034
:100BF00050F822F00B0C0008AF0B00080B0C00089B
:100C0000050C0008B5F1C07FD3D1402363650120F6
:100C1000E5E7022AF9D9032AC8E7012070BD00BF21
:100C20003F8010F070B590F83440012C36D001248C
:100C300080F8344090F83540866D012C4FF0000567
:100C40004FF0020428D180F83540046845652568D6
:100C500025F48025256063608368402B0EBFA26069
:100C6000A160E260C26D08BFE1603F239340B360C2
:100C7000236843F016032360636943F080036361D4
:100C8000036C1BB1236843F008032360236843F01F
:100C900001032360002070BD80F83450022070BD35
:100CA000F7B5002301935A4B856D1F68C36D2E68FD
:100CB00008229A40164204460CD001680868400792
:100CC00008D5086820F004000860AA60626D42F050
:100CD0000102626501229A40164208D021684969E2
:100CE000090641BFAA60626D42F0020262650422F9
:100CF0009A40164208D021680968880741BFAA6057
:100D0000626D42F00402626510229A40164210D0D1
:100D10002368196809070CD5AA601A68500335D5ED
:100D20001B68190301D4236C00E0A36C0BB12046AF
:100D30009847E16D20228A40164238D0236818680F
:100D4000C60634D5AA6094F83520052A1A6825D13C
:100D500022F016021A605A6922F080025A61226C4F
:100D60000AB9A26C1AB11A6822F008021A603F236D
:100D70008B40AB60002384F83430012384F8353095
:100D8000236D0BB12046984703B0F0BD1A68D20519
:100D90005EBF1A6822F008021A60C4E7500328D523
:100DA0001B68190332D4636C0BB120469847636DFE
:100DB000002BE9D0636DDA0719D50523226884F882
:100DC0003530136823F0010313604FF41653B7FB5B
:100DD000F3F7019B01339F42019302D31368DB07B2
:100DE000F7D4002384F83430012384F83530E36CE1
:100DF000C7E71A6812F4807208D1196821F010014F
:100E00001960012384F8342084F83530E36BCBE794
:100E1000080000202DE9F04F85B00B68DFF89C81B9
:100E2000644A01934FF001090023019C09FA03F77A
:100E300007EA0406B74240F0AD804C6824F0100A7F
:100E4000BAF1020F16D14FEAD30C00EB8C0C03F071
:100E5000070BDCF820504FEA8B0B4FF00F0E0EFA09
:100E60000BFE25EA0E0E0D6905FA0BF545EA0E0597
:100E7000CCF820504FEA430C0325D0F800B005FA17
:100E80000CF5ED4304F0030E0BEA050B0EFA0CFE15
:100E90000AF1FF3A4EEA0B0EBAF1010F0095C0F8C5
:100EA00000E015D8D0F808E005EA0E0ECD6805FA86
:100EB0000CFA4AEA0E0EC0F808E0D0F804E02EEA78
:100EC0000707C4F3001E0EFA03FE4EEA0707476049
:100ED000C768009D3D408F6807FA0CF73D43C56029
:100EE000E50057D54FF0000BCDF80CB0D8F84470A2
:100EF000314D47F48047C8F84470D8F8447007F47F
:100F000080470397039F23F0030707F1804707F506
:100F10009C3703F0030CD7F808A04FEA8C0C4FF075
:100F20000F0E0EFA0CFEA8422AEA0E0E39D005F575
:100F30008065A84237D005F58065A84235D005F513
:100F40008065A84233D005F58065A84214BF072507
:100F5000042505FA0CF545EA0E05BD601568F74352
:100F600014F4803F0CBF3D4035431560556814F4C0
:100F7000003F0CBF3D4035435560956814F4801F19
:100F80000CBF3D4035439560D568A40254BF3D4039
:100F90003543D5600133102B7FF447AF05B0BDE872
:100FA000F08F5D46D5E70125D3E70225D1E703257C
:100FB000CFE700BF003C0140000002400038024083
:100FC0000AB1816170470904FBE700002DE9F34194
:100FD000044618B9012002B0BDE8F0810368DD07BE
:100FE00010D42368980758D423681A0700F19A8010
:100FF00023685B0700F1B880A269002A40F01981DC
:101000000020E8E7A64B9A6802F00C02042A07D0F9
:101010009A6802F00C02082A0AD15B68590207D5C7
:101020009F4B1B689A03DCD56368002BD9D1D1E7AD
:1010300063689B4DB3F5803F11D12B6843F4803337
:101040002B60FFF7EFFA964D06462B689B03C8D43A
:10105000FFF7E8FA801B6428F7D90320BBE7B3F554
:10106000A02F04D12B6843F480232B60E5E72A6886
:1010700022F480322A602A6822F480222A60002B1F
:10108000DFD1FFF7CFFA06462B689F03A9D5FFF7FC
:10109000C9FA801B6428F7D9DFE7814B9A6812F000
:1010A0000C0F07D09A6802F00C02082A11D15B6875
:1010B0005E020ED47A4B1A68950702D5E268012ABF
:1010C00088D11A68216922F0F80242EAC1021A6046
:1010D0008AE7E268734BB2B101221A60FFF7A2FA05
:1010E0006F4D06462B68980707D52B68226923F0B9
:1010F000F80343EAC2032B6076E7FFF793FA801BFD
:101100000228EFD9A9E71A60FFF78CFA644D06466A
:101110002B6899077FF568AFFFF784FA801B0228D8
:10112000F6D99AE76269604B7AB101221A60FFF73B
:1011300079FA5B4D06466B6F9F073FF559AFFFF796
:1011400071FA801B0228F6D987E71A60FFF76AFA5E
:10115000534D06466B6F98077FF54AAFFFF762FA6B
:10116000801B0228F6D978E74D4B1A6C12F080529A
:1011700028D101921A6C42F080521A641B6C03F061
:1011800080530193019B0126484D2B68D9051BD53F
:10119000A368434D012B27D12B6F43F001032B672D
:1011A000FFF740FA3E4D074641F288382B6F9B0708
:1011B00039D5002E3FF420AF394A136C23F0805309
:1011C000136419E70026DFE72B6843F480732B6074
:1011D000FFF728FA07462B68DA05D9D4FFF722FA79
:1011E000C01B0228F7D938E7052B04D12B6F43F039
:1011F00004032B67D0E72A6F22F001022A672A6FC7
:1012000022F004022A67002BCAD1FFF70BFA41F241
:10121000883807462B6F9807CBD5FFF703FAC01B1A
:101220004045F7D919E7FFF7FDF9C01B4045BDD987
:1012300013E71B4DAB6803F00C03082B3FF4CAAE59
:101240001B4E0023022A336034D1FFF7EBF9074627
:101250002B6899011ED4226AE3691343626A43EA48
:101260008213E26A43EA0263A26A0D4C5208013A11
:1012700043EA02436B6001233360FFF7D3F905466D
:1012800023689A013FF5BCAEFFF7CCF9401B02285A
:10129000F6D9E2E6FFF7C6F9C01B0228D8D9DCE68A
:1012A0000038024000004742800E47420070004074
:1012B00060004742FFF7B6F904462B689B017FF5B3
:1012C0009FAEFFF7AFF9001B0228F6D9C5E600BFB5
:1012D000134908B58B6803F00C03042B03D0082BCB
:1012E00003D0104808BD104808BD4A684B684968DB
:1012F00013F4800314BF0C480A48C1F3881118BFC7
:10130000002302F03F02A1FB0001FEF7B9FF044BEE
:101310005B68C3F3014301335B00B0FBF3F008BD2E
:10132000003802400024F40000127A002DE9F04158
:101330000D46044610B90120BDE8F081444B1A68FF
:1013400002F00F028A4228D321688F072DD4C807E4
:1013500040D43F4B1A6802F00F02954266D32268D0
:1013600051076CD4130707D53A4A2169936823F4CF
:10137000604343EAC1039360FFF7AAFF354B364A47
:101380009B68C3F30313D35CD840344B1860002030
:10139000FFF7FEF80020BDE8F081CAB21A701B68A2
:1013A00003F00F039942C6D1CEE72A4B11F0040F88
:1013B0001EBF9A6842F4E0529A600E0742BF9A68D4
:1013C00042F460429A609A68A06822F0F0020243F8
:1013D0009A60BCE762681F4B012A1DD11B6813F499
:1013E000003FA8D01B4EB36823F003031343B36040
:1013F000FFF718F941F288380746B368626803F0CE
:101400000C03B3EB820FA4D0FFF70CF9C01B4045CF
:10141000F3D90320BDE8F081911E01291B6802D891
:1014200013F0007FDDE713F0020FDAE7EAB21A707B
:101430001B6803F00F039D427FF47DAF8FE70549E2
:10144000E0688B6823F4E05303438B608AE700BFB6
:10145000003C0240003802401B2E0008080000201B
:10146000044B054A9B68C3F38223D35C034A10688C
:10147000D8407047003802402B2E0008080000209A
:10148000044B054A9B68C3F34233D35C034A10689C
:10149000D8407047003802402B2E0008080000207A
:1014A000036A23F001030362036A70B5446882692A
:1014B0000D6822F073022A438D6823F002032B4348
:1014C0000A4DA8420BD1CD688E6923F008032B4347
:1014D0004D6924F44074354323F004032C434460E5
:1014E00082614A684263036270BD00BF0000014030
:1014F000036A23F480730362036A70B54468C269A7
:101500000D6822F073022A438D6823F4007343EAC6
:1015100005230B4DA8420DD1CD688E6923F40063DD
:1015200043EA05234D6924F44054354323F4806392
:1015300044EA05144460C2614A68C263036270BD34
:1015400000000140036A23F480530362036A30B54C
:101550004468C2690D6822F4E64242EA05228D68B9
:1015600023F4005343EA0533064DA84202BF4D69F8
:1015700024F4804444EA85144460C2614A680264E9
:10158000036230BD00000140704790F83830012BF5
:1015900070B54FF002031CD080F839300368012287
:1015A00080F838209A6822F47F4222F077029A600D
:1015B0000A68402A79D019D8102A00F093800AD8F6
:1015C000002A00F08980012380F83930002380F858
:1015D0003830184670BD202A00F08A80302AF2D1B7
:1015E0009A6822F0700242F0370236E0702A36D054
:1015F0001BD8502A42D0602AE5D11C6A4D68CE68BB
:1016000024F010041C6299691A6A21F4704122F0D6
:10161000A00242EA051241EA063199611A629A680B
:1016200022F0700242F0670217E0B2F5805F11D03D
:10163000B2F5005FC7D18A684D689C68C9682A43C3
:1016400024F47F4442EA012222439A609A6842F4D9
:10165000804202E09A6822F007029A60B3E78A6843
:101660004D689C68C9682A4324F47F4442EA0122F9
:1016700022439A609A6842F07702EEE74C68CE689F
:10168000196A1D6A25F001051D629A6921F00A0197
:1016900022F0F00242EA061221439A6119629A6826
:1016A00022F0700242F05702D7E74C68CE68196A00
:1016B0001D6A25F001051D629A6921F00A0122F0D8
:1016C000F00242EA061221439A6119629A6822F0F6
:1016D000700242F04702C0E79A6822F0700242F0BE
:1016E0000702BAE79A6822F0700242F01702B4E7E4
:1016F0009A6822F0700242F02702AEE7224A03689D
:1017000090420ED0B0F1804F0BD0A2F57C429042B7
:1017100007D002F58062904203D002F580629042C9
:1017200019D14A6823F070031343174A904204D139
:10173000CA6823F44073134318E0B0F1804FF7D028
:10174000124A9042F4D002F580629042F0D002F545
:1017500080629042ECD00E4A9042E9D002F580625D
:101760009042E5D002F580629042E1D003608B6840
:10177000C3620B688362044B984204BF0B69036326
:1017800001234361704700BF000001400004004096
:101790000040014010B50446A0B190F8393003F084
:1017A000FF021BB980F8382000F0BEFD022384F848
:1017B00039302068211DFFF7A1FF012384F839305B
:1017C000002010BD012010BD10B50446A0B190F856
:1017D000393003F0FF021BB980F83820FFF7D4FE40
:1017E000022384F839302068211DFFF787FF012389
:1017F00084F83930002010BD012010BD036A23F0A9
:1018000010030362036A70B5446882690D6822F4AC
:10181000E64242EA05228D6823F0200343EA0513DD
:101820000B4DA8420DD1CD688E6923F0800343EAA9
:1018300005134D6924F44064354323F0400344EA22
:101840008504446082614A688263036270BD00BFA0
:101850000000014038B590F83830012B04464FF0B5
:10186000020025D0012384F8383084F839000C2A8E
:1018700018D8DFE802F0071717171E1717172F17CA
:10188000171740002068FFF70BFE236809699A6963
:1018900042F008029A619A6922F004029A619A69F8
:1018A0000A439A610123002084F8393084F8380013
:1018B00038BD2068FFF7A2FF236809699A6942F4DE
:1018C00000629A619A6922F480629A619A6942EA96
:1018D0000122E6E72068FFF70BFE23680969DA6951
:1018E00042F00802DA61DA6922F00402DA61DA69A8
:1018F0000A43DA61D6E72068FFF724FE2368096906
:10190000DA6942F40062DA61DA6922F48062DA614B
:10191000DA6942EA0122ECE7036A10B501248C403F
:1019200023EA04030362036A8A401A43026210BD79
:1019300010B5044601220068FFF7EEFF2368064A4F
:10194000934202BF5A6C42F400425A641A6842F051
:1019500001021A60002010BD0000014090F83830EC
:10196000012B10B54FF0020318D080F8393003680E
:101970000C685A68496822F070025A605A6822431B
:101980005A609A6822F080029A609A680A439A60C4
:10199000012380F83930002380F83830184610BD14
:1019A00090F83830012B1FD0CB688A6823F440733D
:1019B00013434A6823F4806313430A6823F40063E3
:1019C00013430A6923F4805313434A6923F40053F1
:1019D00013438A6923F4404313430268536400238A
:1019E00080F8383018467047022070470368DA687C
:1019F00022F49072DA605A6922F001025A612023BF
:101A000080F83A30704700002DE9F0470668C26858
:101A10003369C16923F44053134333610446836837
:101A20000069F2680343606922F41642034322F01E
:101A30000C020B431343F3607369A26923F44073F0
:101A40001343B1F5004F73617A4B7CD19E4203D0B2
:101A500003F580639E4244D1FFF712FD192505FB73
:101A600000F360684FF064094000B3FBF0F3B3FB90
:101A7000F9F34FEA0318FFF703FD636868435B005F
:101A8000B0FBF3F7FFF7FCFC636868435B00B0FB57
:101A9000F3F3B3FBF9F309FB1373DB003233B3FB4E
:101AA000F9F35B0003F4F877FFF7EAFC6268684338
:101AB0005200B0FBF2FAFFF7E3FC636868435B0097
:101AC000B0FBF3F3B3FBF9F309FB13A3DB003233F1
:101AD000B3FBF9F303F0070343443B44B360BDE8B1
:101AE000F087FFF7BDFC192505FB00F360684FF098
:101AF00064094000B3FBF0F3B3FBF9F34FEA0318BA
:101B0000FFF7AEFC636868435B00B0FBF3F7FFF7D9
:101B1000A7FC636868435B00B0FBF3F3B3FBF9F326
:101B200009FB1373DB003233B3FBF9F35B0003F4FF
:101B3000F877FFF795FC626868435200B0FBF2FA51
:101B4000FFF78EFCB9E79E4202D03B4B9E4240D14C
:101B5000FFF796FC676819254FF0640905FB00F351
:101B6000BF00B3FBF7F3B3FBF9F31F01FFF788FCEA
:101B7000636868439B00B0FBF3F8FFF781FC636880
:101B800068439B00B0FBF3F3B3FBF9F309FB13834A
:101B90001B013233B3FBF9F303F0F008FFF770FCDD
:101BA000626868439200B0FBF2FAFFF769FC636871
:101BB00068439B00B0FBF3F3B3FBF9F309FB13A3FA
:101BC0001B013233B3FBF9F303F00F0343EA0803BD
:101BD00083E7FFF745FC676819254FF0640905FBAB
:101BE00000F3BF00B3FBF7F3B3FBF9F31F01FFF7FB
:101BF00037FC636868439B00B0FBF3F8FFF730FCE9
:101C0000636868439B00B0FBF3F3B3FBF9F309FB94
:101C100013831B013233B3FBF9F303F0F008FFF732
:101C20001FFC626868439200B0FBF2FAFFF718FCF1
:101C3000BDE700BF0010014000140140F8B50446A4
:101C40000E4617461D4621680B6836EA030301D18C
:101C50000020F8BD6B1CF7D095B92368DA6822F430
:101C6000D072DA605A6922F001025A61202384F8A6
:101C7000393084F83A30002384F838300320F8BD36
:101C8000FEF7D0FCC01B8542DDD2E6E710B5044666
:101C900040B390F8393003F0FF021BB980F83820C8
:101CA00000F086FB2268242384F83930D36823F4BB
:101CB0000053D3602046FFF7A7FE23681A6922F479
:101CC00090421A615A6922F02A025A61DA6842F493
:101CD0000052DA6000202023E06384F8393084F871
:101CE0003A3010BD012010BD2DE9F0411F4690F89B
:101CF0003930202B04460D4690464FD100294AD05A
:101D0000002A48D090F83830012B47D0012380F8C2
:101D100038300023C363212380F83930FEF782FC7A
:101D2000A4F824800646A4F82680E38C9BB26BB905
:101D30003B46324640212046FFF780FFB0B92023C2
:101D400084F8393084F83800BDE8F081E38C013B39
:101D50009BB2E384A368B3F5805F32463B464FF005
:101D6000800120460ED1FFF769FF10B10320BDE8C6
:101D7000F0812B882268C3F308035360236943B9B9
:101D80000235D2E7FFF75AFF0028EFD123682A78FF
:101D90005A600135C9E70120BDE8F0810220BDE8A5
:101DA000F0810000134690F83A20202A73B50546CA
:101DB00038D1002934D0002B32D090F83820012AB5
:101DC00030D00122002480F838202222C4638162AE
:101DD000838580F83A20406B134AC2632E68134A09
:101DE0000264134AC26404650A46311DFEF71AFFF5
:101DF0002B6801941A6801925A680192019ADA6874
:101E000085F8384042F48072DA605A6942F0010283
:101E10005A615A6942F040025A61204602B070BDD0
:101E20000120FBE70220F9E7371E0008711E0008B9
:101E30007D1E0008704708B50368826B1B6813F4A9
:101E4000807310D1D3851368D96821F48071D9606B
:101E5000596921F001015961596921F04001596125
:101E6000202382F83A301046FFF7E4FF08BD7047A0
:101E700008B5806BFFF7FBFF08BD7047816B08B5A5
:101E80000B685A6991F8390021280AD1120608D541
:101E90000022CA84DA6822F0C002DA60202281F8C7
:101EA00039205B6991F83A20222A06D15B0604D5D5
:101EB0000023CB850846FFF799FDCB6B43F0100359
:101EC000CB630846FFF7D9FF08BD000030B595B0D9
:101ED0003022002108A800F047FB0021142203A8AB
:101EE00000F042FB00241C4B01941A6C42F080521B
:101EF0001A641B6C194A03F080530193019B0294EE
:101F0000136823F4404343F40043136013680F94B1
:101F100003F440430293029B01230B9310230C9381
:101F200010934FF4A873119304230225129308A869
:101F30000723139308950E95FFF748F80F23039393
:101F400029464FF4805303A80495059406930794FB
:101F5000FFF7ECF915B030BD0038024000700040CA
:101F600080B59CB00024A74DA74FA84EFEF734FBC8
:101F7000FFF7ACFF1422002115A800F0F5FA049435
:101F80002B6BA34843F004032B632B6B03F0040378
:101F90000493049B05942B6B43F080032B632B6B02
:101FA00003F080030593059B06942B6B43F001031C
:101FB0002B632B6B03F001030693069B07942B6B9B
:101FC00043F002032B632B6B03F0020322460793BB
:101FD0002021079B4FF4005AFEF7F2FF8D4B8E48ED
:101FE000169315A94FF001081794CDF854A0FEF7E9
:101FF00011FF202315A986481593CDF85880179412
:102000001894FEF707FF02942B6B43F480032B63B5
:102010002B6B03F480030293029B03942B6B43F41A
:1020200000132B632B6B03F400132246214603930A
:102030001020039BFEF70CFD1020FEF73DFD21460E
:1020400022463820FEF704FD3820FEF735FD734A9E
:10205000BC604FF4E13387E80C0038460C237B6109
:10206000FC603C61BC61FC61FFF710FE1022214660
:1020700015A800F079FA6A49B4604FF4803386E815
:102080000A004FF00309674BB3623046C6F8108070
:10209000C6F818803462F462F460C6F83080C6F87E
:1020A00014800225C6F81C90FEF7C2FA15A9304626
:1020B0001594CDF858801795FEF722FC15A93046E7
:1020C000CDF8548016954FF00408FEF719FC15A9B9
:1020D0003046CDF85480CDF85890FEF711FC2146DB
:1020E00010220AA800F040FA21461C220EA80894EB
:1020F000099400F039FA1C22214615A84A4D00F037
:1021000033FA4A48AC6048F2AC0385E8090040F66F
:10211000F6132846EB602C616C61FFF73BFB4FF434
:1021200080530AA928460A93FFF72FFA2846FFF79B
:102130004BFB08A9284608940994FFF70FFC60237D
:1021400022460E930EA94FF47A7328460F931094EB
:102150001194129413941494FFF77CFB42460EA939
:102160002846FFF777FB08220EA92846FFF772FBE7
:1021700015A92846159416941794189419941B942D
:10218000CDF868A0FFF70CFC284600F0E5F82146E2
:102190002846FFF7CDFB41462846FFF7C9FB08213B
:1021A0002846FFF7C5FB4A462149214C3046FEF739
:1021B000E3FA38464A461F491E4E1F4FFFF7F2FD0D
:1021C00033782A6803EB83035B005363737803EB74
:1021D00083035B009363B37803EB83035B00D363F8
:1021E00023686268A168019100921421134A38465D
:1021F00000F0C2F90A23142239460348FFF774FDA0
:10220000DEE700BF00380240040200202001002069
:10221000000002400000211000080240004400407D
:10222000002001400100000FC80100200000014013
:102230009C000020A80000200C010020102E0008A7
:102240007047000007B50E4B002100915A6C42F414
:1022500080425A645A6C02F480420092009A0191C2
:102260001A6C42F080521A641B6C03F08053019385
:102270000720019BFEF7DAFB03B05DF804FB00BF0B
:102280000038024070B5064688B01422002103A829
:1022900000F06AF93268204B9A423AD1002503F5E2
:1022A0008C3301955A6C1D481D4C42F480725A645F
:1022B0005A6C02F480720192019A02951A6B42F0F4
:1022C00001021A631B6B03F001030293029B1323A9
:1022D000039303A903230493FEF79CFD114BA56010
:1022E00084E828004FF4806323614FF480536361D6
:1022F0004FF48043A36120464FF48073E560E361AF
:1023000025626562FEF710FC08B1FFF799FFB46320
:10231000A66308B070BD00BF00200140000002406D
:1023200068010020106402400268094B9A4282B0A2
:102330000BD100230193074B5A6C42F001025A64FF
:102340005B6C03F001030193019B02B0704700BF77
:10235000000001400038024010B5044686B0142247
:10236000002101A800F000F922680E4B9A4216D114
:10237000002300930C4B0D481A6B42F001021A63C4
:102380001B6B03F001030093009B4FF4E063019388
:102390000223029301A901230593FEF73BFD06B03A
:1023A00010BD00BF000001400038024000000240A4
:1023B00070B5064688B01422002103A800F0D4F8B6
:1023C0003268204B9A423AD1002503F5FA33019541
:1023D0001A6C1D481D4C42F400321A641A6C02F447
:1023E00000320192019A02951A6B42F001021A63BF
:1023F0001B6B03F001030293029B0C230393022344
:10240000049303A907230793FEF704FD104AA56070
:102410004FF0006384E80C004FF480632361204692
:102420004FF48073E5606561A561E36125626562D3
:10243000FEF77AFB08B1FFF703FF7463A66308B0E9
:1024400070BD00BF0044004000000240AC0000200E
:10245000886002407047FEE7FEE7FEE7FEE7704750
:1024600070477047FEF7D2B80148FEF719BC00BFAD
:10247000AC0000200148FEF713BC00BF680100203B
:102480000F49D1F8883043F47003C1F888300D4B00
:102490001A68002042F001021A6098601A6822F05F
:1024A000847222F480321A60074A5A601A6822F451
:1024B00080221A60D8604FF000638B60704700BFC5
:1024C00000ED00E00038024010300024DFF834D086
:1024D000002103E00C4B5B58435004310B480C4B7C
:1024E00042189A42F6D30B4A02E0002342F8043B1A
:1024F000094B9A42F9D3FFF7C3FF00F011F8FFF739
:102500002FFD704700800120782E00080000002079
:10251000700000207000002048020020FEE700004C
:1025200070B50D4E0D4CA41BA4100025A54209D179
:102530000B4E0C4C00F05CFCA41BA4100025A54223
:1025400005D170BD56F8253098470135EEE756F8AD
:10255000253098470135F2E7702E0008702E0008EC
:10256000702E0008742E000802440346934200D1E6
:10257000704703F8011BF9E70CB430B5174B0C1E7C
:102580009DB01D6808DA8B232B604FF0FF301DB023
:10259000BDE8304002B070474FF40273ADF814301C
:1025A00014BF04F1FF332346049307934FF6FF73E0
:1025B00002900690ADF81630209A21AB02A9284669
:1025C000019300F069F8431CBCBF8B232B60002CE7
:1025D000DDD0029B00221A70D9E700BF0C0000205A
:1025E0002DE9F0478E689E4282460C4691469846F9
:1025F00035D88A8912F4906F31D0256809696F1A2D
:102600006569022305EB450595FBF3F508F1010328
:102610003B449D4238BF1D46530531D5294600F045
:1026200039FB064650B90C23CAF80030A38943F0A1
:102630004003A3814FF0FF30BDE8F0873A4621699F
:1026400000F0B4FAA38923F4906343F08003A381DC
:10265000266165613E44ED1B2660A5604646464501
:1026600028BF464632464946206800F0AAFAA368C9
:102670009B1BA36023681E4426600020BDE8F087F2
:102680002A4600F065FB06460028E1D12169504644
:1026900000F0B2FAC7E700002DE9F04F9DB0804688
:1026A00003938B891C060D4616460FD50B696BB933
:1026B000402100F0EFFA2860286128B90C23C8F8FF
:1026C00000304FF0FF30C5E040236B6100230993D9
:1026D00020238DF8293030238DF82A304FF0010B5C
:1026E00037463C4614F8013B002B3CD1B7EB060AB9
:1026F0000BD05346324629464046FFF771FF013062
:1027000000F0A380099B534409933B78002B00F011
:102710009C8000234FF0FF320493079305920693A9
:102720008DF853301A93052221785048FDF758FD53
:10273000671C049BD8B9D90644BF20228DF85320CA
:102740001A0744BF2B228DF8532022782A2A16D04C
:10275000079A00210A20274601343B78303B092B99
:1027600051D9C9B111E0252BC0D02746B9E73F4A5E
:10277000801A0BFA00F0184304903C46D3E7039A02
:10278000111D12680391002A01DB079204E05242F6
:1027900043F00203079204933B782E2B0ED17B78F3
:1027A0002A2B07F1010132D1039B1A1D1B680392EA
:1027B000002BB8BF4FF0FF33023705932C4C39780C
:1027C00003222046FDF70CFD38B14023001B03FA1D
:1027D00000F0049B034304930137397825488DF8B2
:1027E000281006227E1CFDF7FBFC002835D0224B6A
:1027F000FBB9039B073323F0070308330393099BBB
:102800004B4409936CE700FB02320121A3E700234C
:10281000059318460A240F4601313A78303A092ABE
:1028200003D9002BCAD00590C8E704FB0020012380
:10283000F1E703AB00932A46104B04A94046AFF3DF
:102840000080B0F1FF3F8146D9D1AB895B063FF5EF
:1028500038AF09981DB0BDE8F08F03AB00932A464E
:10286000064B04A9404600F081F8EAE7332E000841
:10287000392E00083D2E000800000000E125000868
:102880002DE9F04791461F468A680B69DDF82080E4
:102890009342B8BF1346C9F8003091F8432006466A
:1028A0000C4612B10133C9F800302368990642BFC3
:1028B000D9F800300233C9F80030256815F0060554
:1028C00007D104F1190AE368D9F800209B1A9D4248
:1028D00029DB94F843302268003318BF01239206A5
:1028E0002ED404F1430239463046C047013021D08E
:1028F0002368E568D9F8002003F00603042B08BF1D
:10290000AD1AA36822690CBF25EAE575002593423C
:10291000C4BF9B1AED184FF000091A344D451BD166
:102920000020BDE8F0870123524639463046C047B3
:10293000013003D14FF0FF30BDE8F0870135C2E729
:10294000E1185A1C302081F84300224494F84510C5
:1029500082F843100233C4E7012322463946304649
:10296000C0470130E6D009F10109D7E72DE9F0436E
:1029700017460A7E85B06E2A984606460C460C9B82
:1029800001F1430E00F0BC801AD8632A2ED00AD879
:10299000002A00F0C880582A00F08A8004F142051D
:1029A00084F842202AE0642A01D0692AF6D12168FD
:1029B0001A6811F0800F23D0111D1960136827E0E9
:1029C000732A00F0B48008D86F2A2AD0702AE5D183
:1029D0000A6842F020020A6003E0752A21D0782AB2
:1029E000DCD1782284F845206E4964E01A6801F150
:1029F0004205111D1960136884F842300123A3E0D9
:102A000011F0400F02F104011960D7D0B2F9003083
:102A1000002B03DA2D225B4284F8432062490A220C
:102A200017E02068196810F0800F03D0081D1860A7
:102A30000B6806E010F0400F01F104001860F7D0B9
:102A40000B8859496F2A14BF0A220822002084F8F3
:102A500043006568A560002DC0F29C80206820F0CE
:102A600004002060002B3FD1002D40F0958075467A
:102A7000082A0BD12368DA0708D5236962689A42CD
:102A8000DEBF302305F8013C05F1FF35AEEB050351
:102A90002361CDF800803B4603AA21463046FFF76C
:102AA000EFFE013055D14FF0FF3005B0BDE8F083A7
:102AB00081F845203C492268186812F0800F00F127
:102AC00004051D6001D0036802E05506FBD50388AC
:102AD000D00744BF42F0200222601BB9226822F0D6
:102AE000200222601022B1E77546B3FBF2F002FB30
:102AF0001033CB5C05F8013D03460028F5D1B7E75C
:102B000008681A68496910F0800F04D0101D186019
:102B10001368196007E010F0400F02F1040018601C
:102B20001368F6D01980002323617546B1E71A684F
:102B3000111D19601568626800212846FDF750FBD9
:102B400008B1401B606063682361002384F8433050
:102B50009FE723692A4639463046C0470130A2D054
:102B600023689B0707D5002504F11909E368039A38
:102B70009B1A9D4205DBE068039B9842B8BF18464C
:102B800093E701234A4639463046C04701308AD090
:102B90000135EBE7002BA7D10B7884F8423004F124
:102BA000420565E7552E0008442E000810B5431E67
:102BB0000A44914200D110BD11F8014B03F8014FB6
:102BC000F7E7884210B501EB020303D8421E994291
:102BD0000CD110BD9842F9D28118D21AD34200D13B
:102BE00010BD13F8014D01F8014DF7E711F8014B45
:102BF00002F8014FEBE7000038B50546002945D043
:102C000051F8043C0C1F002BB8BFE41800F0D6F8B4
:102C10001F4A1368104633B9636014602846BDE844
:102C2000384000F0CCB8A3420CD921686218934216
:102C300004BF1A685B68636004BF521822600460B6
:102C4000ECE713465A680AB1A242FAD91968581833
:102C5000A0420BD120680144581882421960DDD18E
:102C6000106852685A6001441960D7E702D90C23F2
:102C70002B60D3E7206821188A4204BF116852688C
:102C8000626004BF091821605C60C7E738BD00BFFF
:102C90008C00002070B5CD1C25F0030508350C2DE7
:102CA00038BF0C25002D064601DBA94203D90C23B1
:102CB0003360002070BD00F081F8234A146821467B
:102CC00091B9224C23681BB9304600F067F82060A8
:102CD0002946304600F062F8431C26D10C233360AD
:102CE000304600F06CF8E4E70B685B1B1AD40B2B42
:102CF0000FD90B60CD50CC18304600F060F804F1CD
:102D00000B00231D20F00700C31A1BD05A42E250CB
:102D100070BD8C420DBF63684B686360136018BF61
:102D20000C46E9E70C464968CAE7C41C24F00304D2
:102D3000A04205D0211A304600F030F80130CDD045
:102D40002560D9E770BD00BF8C00002090000020F6
:102D5000F8B5074614460E4621B91146BDE8F840BD
:102D6000FFF798BF22B9FFF747FF25462846F8BD71
:102D700000F026F884420FD921463846FFF78AFF33
:102D800005460028F2D031462246FFF70FFF3146B4
:102D90003846FFF731FFE9E73546E7E738B5064C37
:102DA000002305460846236000F014F8431C02D1B6
:102DB000236803B12B6038BD440200207047704780
:102DC00051F8040C0028A0F10400BCBF0B58C01837
:102DD00070470000044B1968024609B9034919609D
:102DE000186802441A6070479400002048020020CE
:102DF000F8B500BFF8BC08BC9E467047F8B500BFE8
:082E0000F8BC08BC9E467047B7
:102E0800000610160006101625642C25642C25646F
:102E18000D0A000000000000000000010203040683
:102E28000708090000000001020304232D302B20AD
:102E380000686C4C006566674546470030313233A0
:102E4800343536373839414243444546003031320B
:102E5800333435363738396162636465660000009B
:082E680048D4FF7F01000000C7
:042E7000C501000890
:042E7400A1010008B0
:102E780001000000100000000024F40010000020F1
:102E8800000000000000000000000000000000003A
:102E9800000000000000000000000000000000002A
:102EA800000000000000000000000000000000001A
:102EB800000000000000000000000000000000000A
:102EC80000000000000000000000000000000000FA
:102ED80000000000000000000000000000000000EA
:04000005080024CDFE
:00000001FF
